:020000040000fa
:080000000002040000000000f2
:020000040000fa
:040008001e030000d3
:020000040000fa
:04000c001e030000cf
:020000040000fa
:040010001e030000cb
:020000040000fa
:040014001e030000c7
:020000040000fa
:040018001e030000c3
:020000040000fa
:04001c001e030000bf
:020000040000fa
:040020001e030000bb
:020000040000fa
:040024001e030000b7
:020000040000fa
:040028001e030000b3
:020000040000fa
:04002c001e030000af
:020000040000fa
:040030001e030000ab
:020000040000fa
:040034001e030000a7
:020000040000fa
:040038001e030000a3
:020000040000fa
:04003c001e0300009f
:020000040000fa
:040040001e0300009b
:020000040000fa
:040044001e03000097
:020000040000fa
:040048001e03000093
:020000040000fa
:04004c001e0300008f
:020000040000fa
:040050001e0300008b
:020000040000fa
:040054001e03000087
:020000040000fa
:040058001e03000083
:020000040000fa
:04005c001e0300007f
:020000040000fa
:040060001e0300007b
:020000040000fa
:040064001e03000077
:020000040000fa
:040068001e03000073
:020000040000fa
:04006c001e0300006f
:020000040000fa
:040070001e0300006b
:020000040000fa
:040074001e03000067
:020000040000fa
:040078001e03000063
:020000040000fa
:04007c001e0300005f
:020000040000fa
:040080001e0300005b
:020000040000fa
:040084001e03000057
:020000040000fa
:040088001e03000053
:020000040000fa
:04008c001e0300004f
:020000040000fa
:040090001e0300004b
:020000040000fa
:040094001e03000047
:020000040000fa
:040098001e03000043
:020000040000fa
:04009c001e0300003f
:020000040000fa
:0400a0001e0300003b
:020000040000fa
:0400a4001e03000037
:020000040000fa
:0400a8001e03000033
:020000040000fa
:0400ac001e0300002f
:020000040000fa
:0400b0001e0300002b
:020000040000fa
:0400b4001e03000027
:020000040000fa
:0400b8001e03000023
:020000040000fa
:0400bc001e0300001f
:020000040000fa
:0400c0001e0300001b
:020000040000fa
:0400c4001e03000017
:020000040000fa
:0400c8001e03000013
:020000040000fa
:0400cc001e0300000f
:020000040000fa
:0400d0001e0300000b
:020000040000fa
:0400d4001e03000007
:020000040000fa
:0400d8001e03000003
:020000040000fa
:0400dc001e030000ff
:020000040000fa
:0400e0001e030000fb
:020000040000fa
:0400e4001e030000f7
:020000040000fa
:0400e8001e030000f3
:020000040000fa
:0400ec001e030000ef
:020000040000fa
:0400f0001e030000eb
:020000040000fa
:0400f4001e030000e7
:020000040000fa
:0400f8001e030000e3
:020000040000fa
:0400fc001e030000df
:020000040000fa
:040100001e030000da
:020000040000fa
:040104001e030000d6
:020000040000fa
:040108001e030000d2
:020000040000fa
:04010c001e030000ce
:020000040000fa
:040110001e030000ca
:020000040000fa
:040114001e030000c6
:020000040000fa
:040118001e030000c2
:020000040000fa
:04011c001e030000be
:020000040000fa
:040120001e030000ba
:020000040000fa
:040124001e030000b6
:020000040000fa
:040128001e030000b2
:020000040000fa
:04012c001e030000ae
:020000040000fa
:040130001e030000aa
:020000040000fa
:040134001e030000a6
:020000040000fa
:040138001e030000a2
:020000040000fa
:04013c001e0300009e
:020000040000fa
:040140001e0300009a
:020000040000fa
:040144001e03000096
:020000040000fa
:040148001e03000092
:020000040000fa
:04014c001e0300008e
:020000040000fa
:040150001e0300008a
:020000040000fa
:040154001e03000086
:020000040000fa
:040158001e03000082
:020000040000fa
:04015c001e0300007e
:020000040000fa
:040160001e0300007a
:020000040000fa
:040164001e03000076
:020000040000fa
:040168001e03000072
:020000040000fa
:04016c001e0300006e
:020000040000fa
:040170001e0300006a
:020000040000fa
:040174001e03000066
:020000040000fa
:040178001e03000062
:020000040000fa
:04017c001e0300005e
:020000040000fa
:040180001e0300005a
:020000040000fa
:040184001e03000056
:020000040000fa
:040188001e03000052
:020000040000fa
:04018c001e0300004e
:020000040000fa
:040190001e0300004a
:020000040000fa
:040194001e03000046
:020000040000fa
:040198001e03000042
:020000040000fa
:04019c001e0300003e
:020000040000fa
:0401a0001e0300003a
:020000040000fa
:0401a4001e03000036
:020000040000fa
:0401a8001e03000032
:020000040000fa
:0401ac001e0300002e
:020000040000fa
:0401b0001e0300002a
:020000040000fa
:0401b4001e03000026
:020000040000fa
:0401b8001e03000022
:020000040000fa
:0401bc001e0300001e
:020000040000fa
:0401c0001e0300001a
:020000040000fa
:0401c4001e03000016
:020000040000fa
:0401c8001e03000012
:020000040000fa
:0401cc001e0300000e
:020000040000fa
:0401d0001e0300000a
:020000040000fa
:0401d4001e03000006
:020000040000fa
:0401d8001e03000002
:020000040000fa
:0401dc001e030000fe
:020000040000fa
:0401e0001e030000fa
:020000040000fa
:0401e4001e030000f6
:020000040000fa
:0401e8001e030000f2
:020000040000fa
:0401ec001e030000ee
:020000040000fa
:0401f0001e030000ea
:020000040000fa
:0401f4001e030000e6
:020000040000fa
:0401f8001e030000e2
:020000040000fa
:0401fc001e030000de
:020000040000fa
:040200001e030000d9
:020000040000fa
:040204001e030000d5
:020000040000fa
:040208001e030000d1
:020000040000fa
:04020c001e030000cd
:020000040000fa
:040210001e030000c9
:020000040000fa
:040214001e030000c5
:020000040000fa
:040218001e030000c1
:020000040000fa
:04021c001e030000bd
:020000040000fa
:040220001e030000b9
:020000040000fa
:040224001e030000b5
:020000040000fa
:040228001e030000b1
:020000040000fa
:04022c001e030000ad
:020000040000fa
:040230001e030000a9
:020000040000fa
:040234001e030000a5
:020000040000fa
:040238001e030000a1
:020000040000fa
:04023c001e0300009d
:020000040000fa
:040240001e03000099
:020000040000fa
:040244001e03000095
:020000040000fa
:040248001e03000091
:020000040000fa
:04024c001e0300008d
:020000040000fa
:040250001e03000089
:020000040000fa
:040254001e03000085
:020000040000fa
:040258001e03000081
:020000040000fa
:04025c001e0300007d
:020000040000fa
:040260001e03000079
:020000040000fa
:040264001e03000075
:020000040000fa
:100400002f0521000eff27000e01880000000000cc
:10041000000020000000e000020032000001200087
:100420002002880014000700860007000000e0009a
:1004300003003a0000c32100010020000200370041
:100440000000200001002000810f70000100320038
:100450000f000700000020000000e0000200320052
:100460000000020000000000081002000000000070
:100470000040da000000fe00202120000000e00023
:1004800002003200002020009001880000000600d9
:10049000a1028800800478000000eb001f003700f4
:1004a000e284440054a0b4009905ba00e2844400f8
:1004b00054a0b4009906ba00e284440054a0b400e9
:1004c0000006eb00476fde00fd07b200ae018800ba
:1004d000636ce10003003a000ad801000000eb0061
:1004e0000e003700606ce10008003a00004deb00a0
:1004f0000a05e800020039003420ec000af0a000f0
:100500008b05e900f9ff3e00040037006168e10057
:10051000010032000086eb000b00070019c7ba008b
:100520000e04e0001905ba0003003a000a00e000da
:10053000dbff3a0000000600fe07b200ae028800b2
:100540008a047800f5ff37000cd0a300e20f4d00bd
:100550001c00390089027800354dba000a05e80010
:10056000020039003420ec000af0a0008b05e900fd
:100570000f003200254dba000a05e80002003900dc
:100580003420ec000af0a0008b05e90008003200de
:100590000c00e0000600320015cdba000a05e800a4
:1005a000020039003420ec000af0a0008b05e900bd
:1005b0008984e80054a0b4000b00e000e2ff3a0098
:1005c000000006009902ba00055d78008b05e9007d
:1005d000f7ff3200c82ade00055d78008b05e900d0
:1005e000f3ff32000c00e000f1ff320019ddba0029
:1005f000eeff370064110400000000004810040002
:10060000000000000a15040000000000161104009c
:10061000000000003412040000000000f414040084
:100620000000000086140400000000007a15040099
:1006300000000000e2050400000000000040da00b5
:100640000000fe00000005006022b8000602200045
:100650000000d0008180d2000482d2008582d200c6
:100660000000a0000202520083825a000300310001
:100670000202420083824a000000a1000603e90052
:10068000f3ff3a0000000600889fbe008a9fbe006c
:1006900030044200b0844a0030054b0090854b0086
:1006a0006000b1000898be000a90be000440e1005e
:1006b00005c8e10006d0e10007d8e10002003100e2
:1006c000680040001008e8004f05be004f04be005f
:1006d00000000600889fbe008a9fbe0010047800bc
:1006e0009004900020059000b0059000041854007c
:1006f00005985c0006185d0007985d001100200059
:100700000440e10005c8e10006d0e10007d8e1009f
:10071000010039008000eb00108810004f05be007a
:100720004f04be00000006001200fa00889fbe00c1
:100730008a9fbe008c9fbe00e0b79f00f1b79f006c
:1007400082bf9f0093bf9f000605be000404be0049
:100750000000eb00d0b79f00c0b79f00b0b79f006c
:10076000a0b79f0090b79f000006eb005fb1970015
:10077000cfb09700820141003fb097000200e00037
:1007800004003d00370007007e805700beff0700d1
:1007900003003700330007007e805700cdff0700bd
:1007a000dfb697000d00e0000c0035006fb2970037
:1007b000ffb297000fbb97009fbb9700100020006f
:1007c000010020006011b8000002720081827200f6
:1007d00002037300838373001b0007000c06e8000c
:1007e00001042000810f5600e0ff3a000d00e000f8
:1007f00004003d000802be000a03be007e805700d0
:10080000a1ff07005fa897000000e00005003a0084
:100810001fb29700afb297003fb39700cfb39700d6
:10082000090007006fb09700ffb097000fb997005d
:100830009fb997004f06be004f05be004f04be0093
:100840000080fa000000060001000700000006001a
:10085000a4b79f00b5b79f00c6b79f00d7b79f004a
:10086000000006004f09de0082817100b3b79f00cf
:100870004f01de008180400082807000a1b79f00a0
:100880008fb097004f09de000000400002007000aa
:1008900090b79f007fa897004f01de008180400045
:1008a0008280700081b79f000d0007004f3ade0084
:1008b0000000400004007000f0af9f000800070037
:1008c0000402420085824a0006034b0087834b00e6
:1008d000dfff07000802be000a03be00000006009a
:1008e0002fb29700bfb297004fb39700dfb39700c6
:1008f00000000600881f780018002000881f78007c
:1009000089ff07008f87e9004f0478000000060088
:10091000801feb0084ff07008f87e90000000600be
:10092000889fbe008a9fbe00e00f5000e08f5800f5
:10093000e00f5900e08f59000c003d006044b80002
:100940006055b8000000540081805c0002015d0029
:1009500083815d00180020001500070008003d009d
:10096000180007000004eb00050037000004eb004e
:100970000f00070002003d001200070018002000d1
:10098000dcff07000800e000060032006022b8002b
:100990006033b8000000520081805a0002015b0001
:1009a00083815b004f05be004f04be0000000600bf
:1009b000e00f5200e08f5a00e00f5b00e08f5b0019
:1009c000000006006044b8006055b80004025400fe
:1009d00085825c0006035d0087835d0000000600e1
:1009e000889fbe008a9fbe008c1f7800e00f5000d9
:1009f000e08f5800e00f5900e08f59000d003d00d6
:100a00006044b8006055b8000000540081805c006c
:100a100002015d0083815d001c0020000820e100d0
:100a200009a8e1000ab0e1000bb8e1000d003d00ab
:100a3000080037000006eb00e00f5200e08f5a007c
:100a4000e00f5b00e08f5b0006003d006044b800f3
:100a50006055b8000402540085825c0006035d0006
:100a600087835d00aaff07000c00e000060032004b
:100a70006022b8006033b8000000520081805a0044
:100a800002015b0083815b004f0678004f05be00ca
:100a90004f04be0000000600889fbe008a9fbe0073
:100aa0008c1f78000006eb00e00f5000e08f58002c
:100ab000e00f5900e08f590007003d006044b80086
:100ac0006055b8000000540081805c0002015d00a8
:100ad00083815d001c002000e00f5200e08f5a006f
:100ae000e00f5b00e08f5b0007003d006044b80052
:100af0006055b8000402540085825c0006035d0066
:100b000087835d000c00a2000c0007000c00e000d1
:100b1000060032006022b8006033b80000005200c6
:100b200081805a0002015b0083815b004f067800e0
:100b30004f05be004f04be0000000600889fbe00a7
:100b40008a9fbe008c9fbe000404b8000506b80052
:100b50008904460060854e000606b8000a05460076
:100b6000e0854e000706b8008b054600040eb8006d
:100b7000890446000a854e00e0854d00050eb80048
:100b80000a0546008b854e00060eb8008b05460010
:100b90000416b8000a0546008b854e000516b800fd
:100ba0008b054600041eb8008b0546000800be00f9
:100bb0000a01be004f06be004f05be004f04be0036
:100bc00000000600881f7800020478000801780001
:100bd000c4000700080040004f0478000000060031
:100be0000000fa00881f780000047800ea815700ae
:100bf0003fb9970088007800205e200007000700ba
:100c00000000e0000200350000044400004ceb004e
:100c10004f0478000080fa00000006006200fa002d
:100c2000889fbe008a1f7800000578008104780044
:100c3000020478008300780080f92f000f00400044
:100c4000770107009a979f00a9979f000000eb008b
:100c5000b09f9f001885fb008a04fb000a05ea008c
:100c60004f55de0050022000808f54000d003200ee
:100c7000e10f55000b003a000a0178008800780067
:100c80002f9097009f91970003000100a0979f006d
:100c90000000e0008e0032003f9897000000e8005e
:100ca000b09f9f000a04440050022000808f54002f
:100cb000040032000900e000e6ff3a003f98970088
:100cc000840037000000eb00909f9f00809f9f00f2
:100cd000f0979f00e0979f00d0979f00c0979f00dc
:100ce00007003700c104210001005000000040004f
:100cf00001042100808040005f989700110070007f
:100d0000d09f9f0088047800090478003845780057
:100d10008a00fb00c0042100790007000000e00009
:100d2000f0ff3a00a1c2b300814f55000e003a0017
:100d3000cf8897000180e900c08f9f0010007800e5
:100d4000c09f9f000000e00005003d000000ea0099
:100d5000c09f9f005f9897000020a000d09f9f0039
:100d60000904e8000f003700c09f9f000000eb005f
:100d700005003700f2ff2700820f5000020032000a
:100d8000ea00b90000804000090478008804780077
:100d9000b900fb000103b100e98f5000f5ff3600f8
:100da000c09f9f00e0c2b300984f100002003200c5
:100db0000080eb0019003700a0c2b300d84f10002c
:100dc00007003a00cf8897000180e900c08f9f009c
:100dd00010007800a09f9f000804e8001000370072
:100de0000000eb00a09f9f008800780005003700fe
:100df000f3ff2700830f500002003200ea00b90021
:100e00000000410001047800880078003101fb00f7
:100e10000203b100e90f5100f5ff3600a09f9f00cb
:100e2000984478008900fb0080032100340007000b
:100e30000000e000020032000804e8000100370072
:100e40008044eb00c97f9f0080c6b30080cf540070
:100e500004003a0098cf14000a003a00664050009f
:100e600006003700c0c6b30080cf540005003a002a
:100e700098cf140003003a0065404000c07f9f00f7
:100e80000804e8001801fb00e3fb2f008f814100fc
:100e900081f92f008f804000a0f92f000f00400043
:100ea000e10007000000e00009003a00e1fb2f002c
:100eb0008f804000a0f92f000f0040001c000700a9
:100ec0000000e000020035000804e80061ff370080
:100ed0000080eb004f0578004f04be000080fa0050
:100ee000000006008001780002003700b159780048
:100ef0000201e9000200e000fcff3a0000000600e9
:100f0000020037000304e000060032000001780010
:100f100002007800b041780081cf5100f9ff3a001b
:100f2000010037000001eb0002007800000006001d
:100f30000400fa00889fbe008a9fbe008c1f7800c4
:100f40000004780001067800f80d90007800900009
:100f5000808555000808900080855500180890008d
:100f6000808555002808900080855500380890003d
:100f700080855500480890008085550000022200b9
:100f800090bf9f0000032300a0bf9f0008109000a7
:100f90000028a30015003a000b00e0001300340005
:100fa0000b0578008a047800e20f55000100360036
:100fb00029002000c801900009017800ee80570048
:100fc0005800900003000100500498000000e00069
:100fd0008c0032006808900009004000600c980006
:100fe000090555004240a900eeff3c007801900041
:100ff0000200e0000c003400c80190008c00780072
:101000005800900003000100500498008080eb001d
:101010000000e0007c003200e808900078009000ba
:1010200000804000600c9800880c90000900e000ef
:101030001100340009057800e28f540001003600e9
:101040002a002000c80190000a017800ec805700b7
:101050005800900003000100500498000000e000d8
:1010600068003200680890000a004000600c980098
:101070008a845400edff3700180990000200e00058
:101080000c003400c8019000e80090005800900067
:1010900003000100500498008080eb000000e00095
:1010a00059003200e80890001808900000804000c5
:1010b000600c9800a80c90000900e00011003400ba
:1010c00009057800e28f5400010036002a00200054
:1010d000c80190000a017800ec8057005800900089
:1010e00003000100500498000000e00045003200b9
:1010f000680890000a004000600c98008a84540040
:10110000edff3700380990000200e0000e003400c7
:10111000e80090001808900080804000c80190000e
:101120005800900003000100500498008080eb00fc
:101130000000e00034003200e80890003808900019
:1011400000804000600c9800c80c90000900e0008e
:101150001100340009057800e28f540001003600c8
:101160002a002000c80190000a017800ec80570096
:101170005800900003000100500498000000e000b7
:1011800020003200680890000a004000600c9800bf
:101190008a845400edff3700081090008000eb00b7
:1011a0000028a300180032000b00e00016003400f5
:1011b0008b04780009057800e28f540001003600a6
:1011c0002a002000c80190000a017800ee80570034
:1011d0005800900003000100500498000000e00057
:1011e00008003200680890000a004000600c980077
:1011f0008a8454004240a900eeff3c008000eb00ce
:10120000010037008080eb00010078004f06780075
:101210004f05be004f04be000080fa00000006002b
:101220000108780000000600889fbe008a9fbe006b
:10123000e4c6b300844f5100ce00320010003c00e1
:101240006b425200844f51001800320005003c00f0
:1012500054c2b300844f51000601320084c5b3006c
:101260000f00370044c6b300844f51001500320010
:1012700065424200844f510001013a0011003700dd
:1012800004c7b300844f5100ed0032005f00350009
:1012900065424200844f51005c00320063424200cc
:1012a000844f5100f6003a00580037001181e900e0
:1012b00082087800f0009000818141009249780016
:1012c000f500370020629000c5c6b300854f52007c
:1012d00008003a0091027800648252008408780085
:1012e00094029000140278004fabde008603780071
:1012f0001600370015c7b300854f520003003a00af
:10130000110478006802540005003700a5c6b30038
:10131000854f520008003a0091047800688254001a
:10132000840878009402900024039000b403900095
:1013300014027800050037001182e9008408780063
:1013400014027800cfa2de00612bb9000498be0021
:101350000690be00a060900088c6b30088cf500001
:101360000d00320028c6b30088cf500004003a00b8
:101370000402fb00cfa2de00612bb9000800370099
:1013800048c7b30088cf50000300320066444400d1
:1013900088cf500004003a00cfa2de00612bb900d4
:1013a0000498be000690be001002780090029000e3
:1013b00020039000b0039000f0009000e00f520076
:1013c000e08f5a00e00f5b00e08f5b0003003d0000
:1013d00001824100d5c2b3000a003700001290001c
:1013e0000418a3000300320001824100b5c2b3001b
:1013f000040037000408a3005900320001824100b4
:1014000005c2b300054a78005300370020629000ff
:10141000c5c6b300854f520009003a001105780097
:101420006402550084087800140478009404900045
:101430006055b8000802be000a03be00160037005f
:1014400015c7b300854f520003003a00910478009d
:101450006882540005003700a5c6b300854f5200ce
:1014600008003a00110578006802550084087800e9
:101470009402900024039000b403900014027800ba
:10148000050037001182e900840878001402780012
:101490008002eb006033b8000498be000690be00e6
:1014a000a060900088c6b30088cf50000d003200c5
:1014b00028c6b30088cf500004003a000482fb0025
:1014c0008002eb006033b8000800370048c7b30063
:1014d00088cf5000030032006644440088cf50009b
:1014e00004003a008002eb006033b8000498be00ac
:1014f0000690be00801090000138a3001800320052
:10150000100278009002900020039000b003900039
:10151000e00f5200e08f5a00e00f5b00e08f5b00ad
:101520000f00320081c7b300814f51000300320029
:1015300081c5b300814f510009003a00f0009000ce
:101540000182410005c3b300054a78008100e8002c
:1015500001824100024a78008100e8007100980091
:10156000f000900081814100630098008240780083
:101570003e003700a0619000c4c6b3001181e900ad
:1015800084cf5100220032000a003c006442520025
:1015900084cf51002500320004c2e80084cf5100fe
:1015a000130032006842520084cf51001e003a00fe
:1015b0000a00370044c7b30084cf51001b0032003b
:1015c0006642420084cf5100180032006942520046
:1015d00084cf510014003a000500370082087800db
:1015e0009200780040589000804878002c00370026
:1015f0008208780092007800600a9000cfa2de0096
:10160000612bb9008498be008690be00240037008c
:10161000820878009200780060099000cf91de0087
:101620008288be001e0037001181e9008208780020
:101630009200780060089000800878001800370059
:101640001181e9008208780012027800cfa2de0042
:10165000612bb9000498be000690be00f000900017
:10166000818141006300980081c7b300100007002a
:101670000b003700f0009000818141000500370029
:10168000f0009000818141000204e00001003a0076
:1016900052c2b300824978008100e80071009800ce
:1016a0000000eb004f05be004f04be000000060026
:1016b000fc874700889fbe008a9fbe008c9fbe00ab
:1016c0008e1f78000006780080c5b30080cf5000e0
:1016d0000a0032007740400080cf50000a003200fc
:1016e0006940400080cf50000b00320070022100a2
:1016f00080bf9f00ae0020000a0037006201210079
:1017000082bf9f00060037007302210083bf9f0045
:101710008e002000030037007402210084bf9f0068
:101720000e0120001c0278009c0290002c03900007
:10173000bc0390000605be000404be0040c6b30012
:1017400080cf5000030032006540400080cf500041
:101750000b003a00e00f5200e08f5a00e00f5b00f0
:10176000e08f5b0006003d006000b8006011b8002b
:1017700004045000858458000605590087855900e7
:10178000e80f57000400320040002000f00f57001f
:101790003c003a000100370030002000e00f540008
:1017a000e08f5c00e00f5d00e08f5d0004003a0018
:1017b000dc0890008d0120000100e00007003200ed
:1017c0008e00e900888060008fba97008180420017
:1017d00091407800f1ef9f007d01200080007800ab
:1017e0008100e900050033008b05d1000a85d30094
:1017f0008984d3000884d300f9ff3700089ebe0017
:101800000a96be00130037008d06e9008e00e9003d
:10181000848060000fb99700810041001141780079
:1018200083fd2f008d81410082f7790080017800cf
:101830008301e900050033008783d1000683d300cc
:101840008582d3000482d300f9ff3700049ebe00d6
:101850000696be001c0278009c0290002c039000ab
:10186000bc039000e00f5200e08f5a00e00f5b00d5
:10187000e08f5b00930034000d00e000e2ff3c00cd
:10188000900037002c60900081c6b300814f50005b
:101890000b00320006003c000004e00008003200ab
:1018a000e6c05000814f500052003a00040037005b
:1018b000c1c6b300814f50004e003a0023003700ec
:1018c0000800e00004003a005c0890008d01200050
:1018d0000000e00007003200110009000e84d8006b
:1018e0000fba97000100420010407800f0ef9f000f
:1018f0007d012000110009000e84d8000b00370084
:10190000110009000e04d8008d06e9008e81b9008f
:10191000020454008fb89700088440009841780072
:1019200082fd2f000d0141008377790000047800cb
:101930000800e000020032000d00e000f0ff3c0073
:10194000cfc4de00614db90027003700e00f54001e
:10195000e08f5c0004003a005c0890008d012000dc
:101960000000e000080032006171b9000800be000c
:101970009b0007000fba970080004200914078005a
:10198000f1ef9f007d0120006171b9000800be00e9
:101990002dfb07000c0037006171b9000800be0084
:1019a000800007008d06e90080f1b90002045400b0
:1019b0008fba9700088442009841780082fd2f007a
:1019c0000d014100837779000004be00e00f500054
:1019d000e08f5800020032000d00e000eeff3c00f6
:1019e0004fcdde008a057800089ebe000a96be0034
:1019f00034003700e00f5400e08f5c00e00f5d0022
:101a0000e08f5d0004003a005c0890008d0120002a
:101a10000000e0000a0032006172b900612bb900d9
:101a20000800be000a01be00b9fb07000fba97000c
:101a30008000420091407800f1ef9f007d0120007e
:101a40006172b900612bb9000800be000a01be0036
:101a5000a8fb07000e0037006172b900612bb900c6
:101a60000800be000a01be00adfb07008d06e900bc
:101a700080f2b900040454008fba97000884420031
:101a80009842780084fd2f000d02420085777a008d
:101a9000009ebe000296be001c0478009c049000cc
:101aa0002c059000bc059000e00f5400e08f5c0016
:101ab000e00f5d00e08f5d00020034000d00e000eb
:101ac000e5ff3c00e80f570010003a000c109000b2
:101ad0000038a3000d003200f78f560006003e00cc
:101ae00080fd2f000d004000ef40780000c3b300e0
:101af00080cf50000500320002c3b30071fd2f00fb
:101b00008d8040008d06e90082f77800788116000c
:101b1000120e98006c00900083fd2f008f81410011
:101b20008d804100effc07001c089000dc0890004d
:101b3000810f500006003d0000805000000e98000c
:101b40000c1090000040a100001698000f00370014
:101b50000100e0000d003d008c109000f48060005a
:101b6000f08f500009003a007c099000fc009000c2
:101b7000810051000c0990008280500000805000cc
:101b80004240a90001003400000e98004f07780081
:101b90004f06be004f05be004f04be00cf01b1008e
:101ba00000000600839f68000100e00002003d0085
:101bb00060001000e08018000300e00002003d001b
:101bc00060011100e08119009ffa07004f00e0005a
:101bd00002003b0060001000e080180000000600da
:0c1be00099fa07000400be000000060097
:020000040000fa
:101bec00576500006c6300006f6d000065200000fd
:101bfc00746f0000202000000043000048450000e6
:101c0c0053530000434c00004f4300004b000000b6
:101c1c005365000074200000546900006d650000dd
:101c2c003a2000002530000032640000206d0000d6
:101c3c00696e000000530000657400002042000033
:101c4c006f6e0000757300003a2000002532000012
:101c5c0064200000730000005365000074740000e1
:101c6c00696e000067730000003e00002053000006
:101c7c0065740000207400006f740000616c00003b
:101c8c0020740000696d0000650000002020000039
:101c9c00536500007420000074750000726e000023
:101cac00206200006f6e00007573000000200000c1
:101cbc002053000065740000207400006f74000055
:101ccc00616c000020740000696d0000650a000062
:101cdc00003e0000205300006574000020740000da
:101cec00757200006e200000626f00006e750000bf
:101cfc00730000003e200000536f0000756e000062
:101d0c0064730000204f00006e2f00004f6600002f
:101d1c006600000020200000536f0000756e00006c
:101d2c0064730000204f00006e2f00004f6600000f
:101d3c00660000003e200000437200006564000055
:101d4c006974000073000000202000004372000042
:101d5c006564000069740000730000003e20000000
:101d6c005365000074200000746f00007461000063
:101d7c006c200000746900006d6500000a00000012
:101d8c002075000073650000642000007469000079
:101d9c006d6500003a000000253000003264000040
:101dac003a25000030320000642000006d6900000c
:101dbc006e20000028250000642500002529000065
:101dcc000020000020200000476100006d6500002d
:101ddc00204f0000766500007220000000540000c7
:101dec00776f000020540000696d0000656f0000e3
:101dfc0075740000210000004f6e0000652000008b
:101e0c00546900006d6500006f75000074210000be
:101e1c000020000020200000206900006e2000003f
:101e2c00746900006d650000202000002020000077
:101e3c0000500000204f00006e65000000500000b4
:101e4c0020540000776f0000002100002068000083
:101e5c00616e0000646c0000654500006e6400005b
:101e6c00696e00006700000025320000642e00003f
:101e7c00502000004f6e0000653a00002025000045
:101e8c0030320000643a000025300000326400005b
:101e9c0000250000326400002e5000002054000089
:101eac00776f00003a2000002530000032640000fb
:101ebc003a2500003032000064000000437200003c
:101ecc006561000074650000642000006279000008
:101edc003a20000000530000747500006465000097
:101eec006e740000733a000020000000546f000074
:101efc00626900006173000020480000616100000d
:101f0c00670000004a6100006e200000536300006f
:101f1c00686e0000656900006465000072000000d6
:101f2c004d610000726300007573000020530000c7
:101f3c00636800006f6300006800000046650000e5
:101f4c006c69000078200000537500006573000078
:101f5c007300000020000000537000006563000057
:101f6c00696100006c20000054680000616e000084
:101f7c006b73000020000000746f0000206f0000e5
:101f8c007572000020500000726f00006620000087
:101f9c00004a00007565000072670000656e000065
:101fac002053000063680000756500006c6500003c
:101fbc002000000021200000696e00006974000000
:101fcc00506900006e0000002120000064690000d0
:101fdc0067690000746100006c52000065610000cc
:101fec0064000000212000006469000067690000a3
:101ffc00746100006c570000726900007465000089
:04200c0000000000d0
:020000040000fa
:102010000400fa00000f7800110798000000eb00a0
:102020009e040700100020009c04070020002000f0
:102030009a040700300020009804070040002000a8
:102040009604070050002000940407006000200060
:10205000920407007000200090040700620507004a
:10206000ef0507008d050700360307004016210025
:1020700000000100803e20008e0507008004210042
:10208000000001000000eb000080fa0000000600e4
:102090000000fa002e00370040002000cf040700a7
:1020a0000004e00013003a0008d0bf000004a200c2
:1020b0000004e0000f003200308080000000e800e3
:1020c00030808800718080000080800000804000a7
:1020d0007080880010c0b30008f0b7000970ef00ee
:1020e000a050210000000100611121000000eb0060
:1020f0000100010070002000b80407000004e000a7
:1021000013003a0009d0bf000004a2000004e00060
:102110000f003200208080000000e800208088004e
:1021200081808000008080000080400080808800e6
:102130000870ef0010c0b30009f0b700a0502100f4
:1021400000000100611121001000200001000100c9
:1021500000408000680060000000e000ceff320018
:1021600000408000680060000000e0002b003200aa
:102170000068a9000021ef0040422f0010088800ed
:102180000060fe00d0002000940407000004e0007e
:1021900004003a004023210000000100404f2100cc
:1021a0000000010008d0bf000004e000040032007d
:1021b000708080000000e90070808800090037000e
:1021c00009d0bf000004e0000400320080808000dd
:1021d0000000e900808088000200370060002000d5
:1021e000f6040700808080000000e0000700320055
:1021f000708080000000e0000400320050002000e9
:10220000760407000004e00004003a006048210062
:1022100000000100404f210000000100a0502100fb
:102220000000010000000000c9ff37000400fa00b0
:10223000204798000ad0bf000041780001322000fa
:10224000200320002c0507002e4090000004e00031
:102250000e00320080002000000f780007003700d9
:10226000110020001e0078000008dd00d3040700e4
:10227000200320000f0507001e0fe8001e00780055
:10228000eb0f5000f6ff34000d003700b0002000c7
:10229000000f780007003700110020001e007800b2
:1022a0000008dd00c5040700200320000105070029
:1022b0001e0fe9001e007800e70f5000f6ff3c00fb
:1022c0000080fa00000006000000fa000101200072
:1022d00060df2800bb0207008000eb001000200038
:1022e000ca0307000101200030e02800b502070002
:1022f00010c0b300cdff07000040eb00cbff07008c
:102300000080fa00000006001000fa0023003700e9
:102310001203070061808000908828000008b80040
:102320004508de00801f7800e0e02800801f78006c
:102330000e0078002afa0700e48757000101200008
:102340000e0078009f020700b10407008000fb0028
:10235000c00320008088b900800078006080800081
:10236000008040006080880061808000b003200011
:10237000808f500003003e00c00320006080880072
:10238000060037006180800080512100808f50005e
:10239000020036008051210060808800d0002000bb
:1023a0000e0407000004e000d9ff3a000080fa00a4
:1023b000000006001000fa001b003700e7020700cb
:1023c00000808000801f780010e22800801f7800c5
:1023d0000e00780002fa0700e48757000101200090
:1023e0000e00780077020700890407008000fb00d8
:1023f0000080800000804000008088000080800015
:102400000000e00002003d000030ef000600370051
:1024100001808000c0032000808f50000200340043
:10242000c003200000808800d0002000eb030700dc
:102430000004e000e1ff3a000080fa00000006001e
:102440000000fa000ad0bf00e14f500002003a003d
:102450000a70ef000200370010c0b3000af0b700a6
:102460000080fa00000006000600fa00bb02070028
:102470000101200020e32800520207000ad0bf001b
:102480000041780001322000803e20009a040700bd
:1024900000c0eb00004f78001e4078000040e900cb
:1024a00010479800900037005904070080407800da
:1024b0001e40780000c04000004f78001e407800a9
:1024c0000004e000880032001e407800e14f500018
:1024d0000c003a001e4090009e40780080cf5000d3
:1024e000080034009d02070001012000b0e328002d
:1024f0003402070001012000c0e428003102070077
:10250000740037001e407800e24f50000c003a0083
:102510001e4090009e40780080cf5000080034009c
:102520008e02070001012000d0e5280025020700e7
:1025300001012000f0e628002202070065003700b4
:102540001e407800e34f50000f003a001e409000fc
:102550009e40780080cf50000b0034007f020700bf
:1025600001012000c0e42800160207008000eb00f3
:1025700010002000250307000101200000e82800ca
:1025800010020700530037001e407800e34f500050
:102590000f0034001e4090009e40780080cf500015
:1025a0000b0034006d0207000101200000e9280043
:1025b000040207008000eb00100020001303070056
:1025c0000101200000ea2800fe0107004100370059
:1025d0001e407800e34f50000f003a001e4090006c
:1025e0009e40780080cf50000b003d005b0207004a
:1025f0000101200000e82800f20107008000eb0044
:10260000100020000103070001012000a0ea2800bb
:10261000ec0107002f0037001e407800e24f500009
:102620000f003a001e4090009e40780080cf50007e
:102630000b003d004902070001012000f0e62800e0
:10264000e00107008000eb0010002000ef0207000f
:102650000101200000e92800da0107001d00370011
:102660001e407800e14f50000f003a001e409000dd
:102670009e40780080cf50000b003d0037020700dd
:102680000101200040eb2800ce0107008000eb0094
:1026900010002000dd02070001012000c0e4280036
:1026a000c80107000b0037001e407800e34f5000c0
:1026b0000300340040c0b300004f7800050037002d
:1026c0001e4078000004e00002003c0010c0b3008f
:1026d000004f78001e4090009e4f500002003200d4
:1026e0009e40780011479800d00020003b0307006f
:1026f0000004e0006cff3a001e4078000004a200d5
:102700000080fb000000e9004f00de002047980039
:102710001e4078000014a2000080fb000000e900c9
:102720004f00de00304798009e40780063c068008c
:102730000080fb000000e9004f00de0040479800e9
:1027400010c0b3009e407800e3cf500001003c0071
:102750000040eb00504798000ad0bf0000417800cd
:1027600001322000803e2000e30307002e4090004d
:102770000004e00002003200e3fe07000f00370013
:102780003e4090000004e0000200320009ff070014
:102790000a0037004e4090000004e00002003200c2
:1027a00027ff0700050037005e4090000004e000ae
:1027b00002003200a0572100000001000ad0bf0033
:1027c00000417800014b2000803e2000ca03070032
:1027d0000080fa00000006001600fa00100f9800b2
:1027e000210f9800dd010700510020001e08900015
:1027f00074010700b100200060ec2800710107009f
:10280000618080002e089000008f50008000eb0057
:10281000100020007d0207009e0078004006200086
:102820008088b90080007800608080000001780016
:10283000110009008280d800000278001e01780093
:10284000908828000010b8004508de00c103200071
:102850008180b900000051001e0178009188280095
:102860000111b8004519de008e80e800841f780051
:10287000801f7800821f780020ed2800801f7800dc
:1028800001007800d6f80700e88757000e80e800be
:10289000010120004b0107000080fa000000060043
:1028a0000000fa00ad010700f100200070ee2800e2
:1028b000440107008000eb001000200053020700d5
:1028c000808080000000e00004003a000101200048
:1028d00050ef28003b0107000a003700708080009d
:1028e0000000e00004003a000101200020f0280070
:1028f0003401070003003700e1002000f0f0280059
:10290000300107000080fa00000006000200fa0013
:10291000e3ff070001003700000000006000200016
:10292000ae0207000004e000fbff3a000040eb00ad
:10293000004f78002100370060002000a702070048
:102940000004e0001d003a001e80fb000000e000d3
:1029500003003200e10f5000060032000a00370089
:102960008080800080007800f0f128009aff070046
:102970000a003700708080008000780050f2280044
:1029800095ff0700050037007401070001012000d2
:10299000b0f228000b010700000000001e4fe80005
:1029a0009e40780061cf60000ad0bf0000417800ef
:1029b00001322000401f20004f030700500020007c
:1029c000860207000004e000dbff3a000ad0bf00e7
:1029d0000041780061092000803e20004603070086
:1029e0000080fa00000006000000fa000970ef0005
:1029f0000870ef0060808000808088006080800028
:102a0000708088000430ef000630ef000080fa008c
:102a1000000006001000fa005001070082808000cc
:102a2000908828000010b8004508de00c10320008f
:102a30008180b900000051008280800091882800c8
:102a40000111b8004519de0021808000801f780048
:102a5000821f7800811f7800a0f32800801f780073
:102a60000e0078005ef80700e88757008000eb0052
:102a70000000eb00e5010700010120000e007800d6
:102a8000d000070072808000908828000010b800f5
:102a90004508de00c10320008180b900000051001c
:102aa00072808000918828000111b8004519de006d
:102ab00031808000801f7800821f7800811f78009d
:102ac000f0f42800801f78000e00780044f807001a
:102ad000e88757008000eb0010002000cb010700c2
:102ae000010120000e007800b60007000080fa0007
:102af000000006000000fa00180107000101200094
:102b000040f62800af0007008000eb001000200016
:102b1000be0107000101200010f72800a9000700ee
:102b200082003700ba0207008000fb00108080009e
:102b30000080400010808800108080000000e000cd
:102b40000b003a00050107000101200040f62800b3
:102b50009c0007008000eb0010002000ab01070084
:102b60000101200010f72800960007006f003700d1
:102b700010808000e10f50000b003a00f7000700c2
:102b80000101200010f728008e0007008000eb00f4
:102b9000100020009d01070001012000c0f728005f
:102ba000880007006100370010808000e20f5000ad
:102bb0000b003a00e900070001012000c0f72800df
:102bc000800007008000eb00100020008f0107004c
:102bd0000101200080f828007a0007005300370028
:102be00010808000e30f50000b003a00db0007006c
:102bf0000101200080f82800720007008000eb002f
:102c000010002000810107000101200060f9280068
:102c10006c0007004500370010808000e40f500072
:102c20000b003a00cd0007000101200060f92800e8
:102c3000640007008000eb00100020007301070013
:102c40000101200040fa28005e000700370037002d
:102c500010808000e50f50000b003a00bf00070015
:102c60000101200040fa2800560007008000eb0018
:102c700010002000650107000101200000fb280072
:102c8000500007002900370010808000e60f500038
:102c90000b003a00b10007000101200000fb2800f2
:102ca000480007008000eb001000200057010700db
:102cb0000101200020fb2800420007001b00370014
:102cc00010808000e70f50000b003a00a3000700bf
:102cd0000101200020fb28003a0007008000eb00e3
:102ce00010002000490107000101200020fc2800fd
:102cf000340007000d00370010808000e80f5000fe
:102d00000a003a00950007000101200020fc28007d
:102d10002c0007008000eb00100020003b010700a2
:102d200001012000f0fc280026000700d000200050
:102d3000aa0107000004e0007aff3a000080fa00d0
:102d4000000006000000fa00f03f2000103088006c
:102d500030382800003088001000200060308800e3
:102d6000907f240001002000050107000426ef00e9
:102d70008003200040308800c000200001002000b7
:102d8000ff0007000426ef00c0002000403088004c
:102d9000c000200001002000f90007000426ef0019
:102da0006000200040308800c000200001002000aa
:102db000f30007006900070010c0b3000080fa00ac
:102dc000000006000600fa0010079800210798008e
:102dd0000000eb00000f78000b0037001e00900091
:102de0001e004000104078000000fb000000e000e2
:102df0000a0032001e0090001e00400010407800c3
:102e0000090007001e0fe8002e0090009e007800c9
:102e1000808f5000f1ff39000100370000000000f2
:102e20000080fa00000006000200fa00004f78005f
:102e30001e00fb00ea0f50000e003200ea0f5000a7
:102e400003003c00e80f5000150032001b00370063
:102e5000ec0f500017003200ed0f500017003a0041
:102e600014d0bf00ea4f5000360032004c0007007b
:102e70003500370014d0bf00ed4f50000100320084
:102e80004700070012d0bf000004e00002003a0033
:102e9000b00007002c003700a30007002a0037000d
:102ea0005300070000c2b300dfff07005000070017
:102eb00025003700290007002300370013d0bf008a
:102ec000f04f500014003a001370ef0012d0bf0012
:102ed0000004e00009003a000426ef00000c200086
:102ee00040308800c000200001002000a40007003e
:102ef00010c0b30012f0b700070037000426ef003f
:102f00000008200040308800c000200001002000a0
:102f10009b0007001270ef00100020002030880096
:102f20001e00fb0040308800c0002000010020008f
:102f30009300070013d0bf000040e80013f0b70073
:102f400001003700000000001e417800410121000f
:102f5000824878000080fa00000006000000fa00b5
:102f60000426ef001000200040308800701f200071
:102f700001002000820007000426ef00200020004e
:102f800040308800701f2000010020007c000700f6
:102f90001270ef001370ef000080fa0000000600ce
:102fa0000000fa0012d0bf000004e00007003a0061
:102fb0000426ef000008200040308800c0002000f8
:102fc000010020006e000700060037000426ef0015
:102fd000000c200040308800c000200001002000cc
:102fe000670007001370ef000080fa000000060081
:102ff0000200fa0013d0bf000004e0001c003a00f9
:1030000012d0bf000004e00009003a000426ef00df
:10301000000c200040308800c0002000010020008b
:103020005700070010c0b30012f0b70007003700c8
:103030000426ef000008200040308800c000200077
:10304000010020004e0007001270ef000040eb006e
:10305000004f780002003700100007001e4fe80004
:103060001e407800ee4f5000fbff3600090037008d
:1030700013d0bf000040e90013f0b7000426ef00b2
:103080000001200040308800c00020000100200026
:103090003b0007000080fa00000006000000fa0074
:1030a0000426ef004001200040308800c0002000ce
:1030b000010020003200070013d0bf000040e800ec
:1030c00013f0b70013d0bf00f04f500014003a00c7
:1030d0001370ef0012d0bf000004e00009003a00b6
:1030e0000426ef00000c200040308800c0002000c3
:1030f000010020002200070010c0b30012f0b7004a
:10310000070037000426ef00000820004030880048
:10311000c000200001002000190007001270ef001d
:103120000080fa00000006000200fa000040eb00f8
:10313000004f780002003700adff07001e4fe80087
:103140001e407800ef4f5000fbff36000080fa0071
:10315000000006000200fa000040eb00004f78007b
:1031600002003700cdff07001e4fe8001e40780028
:10317000ef4f5000fbff36000080fa000000060011
:103180000400fa00008fbe000500370000000000b8
:103190000081eb008081eb001e0f41005e9749002b
:1031a0001e0078009e009000e00f5000e08f580055
:1031b000f6ff3a000080fa00000006000200fa0064
:1031c000004f78001e4078000004e0000700320045
:1031d0000426ef00f000200040308800c0002000ee
:1031e00001002000e6ff0700060037000426ef007c
:1031f000c000200040308800c000200001002000f6
:10320000dfff07000080fa00000006000600fa0059
:1032100010079800210798001e0090000000e000b1
:103220000a003a000426ef00000820004030880021
:10323000c000200001002000d1ff07000000eb00cb
:10324000100798001370ef00090037000426ef0004
:10325000000c200040308800c00020000100200049
:10326000c7ff070010002000100798001370ef0040
:103270000000eb00000f78000200370087ff070016
:103280001e0fe8002e0090009e007800808f5000f6
:10329000faff39000080fa00000006000200fa0080
:1032a000000f78001e007800e30f5000220032006b
:1032b000e30f500005003e00e10f50001200320005
:1032c000e10f500016003e0009003700e50f5000e6
:1032d00026003200e50f50001d003900e60f5000b7
:1032e00029003200e70f50002e0032003400370072
:1032f0001f0ea900190ea900110ea9001b0ea9008e
:103300001d0ea900330037001f2ea900192ea90099
:10331000112ea9001b2ea9001d2ea9002d0037007b
:103320001f4ea900194ea900114ea9001b4ea9005d
:103330001d4ea900270037001f6ea900196ea900b5
:10334000116ea9001b6ea9001d6ea9002100370097
:10335000698ea900618ea8006b8ea9006d8ea900f0
:10336000618ea8006b8ea8001a00370069aea90014
:1033700061aea8006baea9006daea90061aea80059
:103380006baea8001300370069cea90061cea8007b
:103390006bcea9006dcea90061cea8006bcea800af
:1033a0000c00370069eea90061eea8006beea900e1
:1033b0006deea90061eea8006beea80005003700d5
:1033c000e6fe07000101200000fe28007dfe070048
:1033d000000000000080fa00000006000200fa0071
:1033e000000f78001e007800e70f50001c0032002c
:1033f000e70f500007003e00e50f500010003200bc
:10340000e50f500012003e00e40f500008003200ab
:1034100023003700ec0f500019003200ed0f500070
:103420001b003200eb0f5000110032001c0037006f
:10343000107380004c00de00614060001d0037000a
:10344000107380004d00de006140600019003700fd
:10345000107380004e00de006140600015003700f0
:10346000107380004f00de0000407800110037002c
:103470001073800000407800614060000d0037004c
:10348000107380000000d100614060000900370027
:10349000107380004900de006140600005003700c5
:1034a000aefe070001012000a0fe280045fe070037
:1034b0000040eb000080fa00000006000400fa0063
:1034c000000f7800214798001e007800e10f50009f
:1034d00012003200e10f500005003900e20f5000e9
:1034e00019003200e30f5000220032002c00370098
:1034f0002e409000614060000080fb006100600091
:103500004800dd00a2708000f1ef2f008100610013
:1035100001007000a0708800260037002e40900047
:10352000614060000080fb00610060004900dd0038
:10353000a2708000f1df2f008100610001007000a7
:10354000a07088001b0037002e4090006140600092
:103550000080fb00610060004a00dd00a270800076
:10356000f1bf2f008100610001007000a070880091
:10357000100037002e409000614060000080fb008a
:10358000610060004b00dd00a2708000f17f2f0021
:103590008100610001007000a07088000500370004
:1035a0006efe07000101200080ff280005fe0700d5
:1035b000000000000080fa00000006000200fa008f
:1035c000000f7800a1708000f00f2f0000806000d5
:1035d000a0708800a07080001e007000a07088009d
:1035e0000080fa00000006000000fa006f2ea9001b
:1035f000600ea800602ea800612ea8006a0ea80028
:103600006a2ea8006b2ea8000080fa0000000600b9
:103610000200fa00881f7800b00020006fff07004a
:103620000080fb000000ea004f00de00004f780041
:1036300006003700d000200068ff07000004e0000b
:1036400002003a000040eb00110037001e84fb002e
:10365000b000200061ff07000080fb00800f5400d5
:10366000f4ff32001e4078000004a2000084fb003a
:10367000c000200059ff07000080fb00800f5400ad
:1036800002003a0000c0eb000100370010c0b30098
:103690004f0478000080fa00000006000000fa00e5
:1036a0006f0ea900610ea900690ea9000080fa0042
:1036b000000006000200fa00000f78001e007800eb
:1036c0008000eb006011b80004902000d5032000ba
:1036d0006033b800f0f40700843e200005002000ad
:1036e0006033b80083f407000000be0083000700c9
:1036f0000080fa00000006000e00fa004007980063
:1037000051079800424f9800ce009000d0cc2c007a
:103710000008b8004308de00400798005e009000f3
:103720008000eb000001be0000482800e1012000fd
:10373000c5f3070020079800310798004e48900015
:10374000e14f500031003a00130037000000eb0059
:10375000000f7800050037002e009000be0090009a
:1037600066000700650ea9001e0fe8001e01780024
:103770005e009000c200de00b04721000008b800e3
:103780000100d100800f5100f3ff39004e0090007e
:103790000000e900400798004e0090000000e000a3
:1037a000eaff3a001c0037000000eb001007980009
:1037b0000b0037002e009000be0090004f00070065
:1037c000650ea8002e009000be0090004b00070080
:1037d000650ea9001e0090000000e8001007980088
:1037e0001e0190005e009000c200de00b047210084
:1037f0000008b8000100d100800f5100edff390032
:103800004e0090000000e900400798004e00900034
:103810000000e000e4ff3a000080fa00000006002b
:103820000000fa0005e1a9000421a90004c1a900d3
:1038300021088000f0fc2f00008060000050a000f4
:10384000200888000021ef0040422f001008880067
:103850000068a90005e1a8000080fa000000060049
:020000040000fa
:103860001210000004000000800000000c10000096
:103870000600000082000000b400b40000b40000a4
:10388000001000000c000000800000003810000054
:103890001a00000082000000686a6c00747a4c0014
:1038a00000000100000200000400080000100000f9
:1038b000000020002b2d2300300000001610000017
:1038c0002200000082000000303132003334350025
:1038d0003637380039414200434445004600300045
:1038e00031323300343536003738390061626300d5
:0c38f0006465660000000000000000009d
:020000040000fa
:1038fc00f03fb1000180b10006003500ee03090075
:10390c0000000000403fb1000180b100fbff3d0012
:10391c001000b000203fb00002003500008009000c
:08392c0000000000000006008d
:020000040000fa
:0200000401f009
:04000800cfff000026
:020000040000fa
:0200000401f009
:04000c00faffff00f8
:020000040000fa
:0200000401f009
:04001000bdffff0031
:020000040000fa
:0200000401f009
:040014007fffff006b
:020000040000fa
:0200000401f009
:04001800ffffff00e7
:020000040000fa
:0200000401f009
:04001c00dfffff0003
:020000040000fa
:0200000401f009
:04002000cfffff000f
:00000001FF
