:020000040000fa
:080000000002040000000000f2
:020000040000fa
:04000800fe020000f4
:020000040000fa
:04000c00fe020000f0
:020000040000fa
:04001000fe020000ec
:020000040000fa
:04001400fe020000e8
:020000040000fa
:04001800fe020000e4
:020000040000fa
:04001c00fe020000e0
:020000040000fa
:04002000fe020000dc
:020000040000fa
:04002400fe020000d8
:020000040000fa
:04002800fe020000d4
:020000040000fa
:04002c00fe020000d0
:020000040000fa
:04003000fe020000cc
:020000040000fa
:04003400fe020000c8
:020000040000fa
:04003800fe020000c4
:020000040000fa
:04003c00fe020000c0
:020000040000fa
:04004000fe020000bc
:020000040000fa
:04004400fe020000b8
:020000040000fa
:04004800fe020000b4
:020000040000fa
:04004c00fe020000b0
:020000040000fa
:04005000fe020000ac
:020000040000fa
:04005400fe020000a8
:020000040000fa
:04005800fe020000a4
:020000040000fa
:04005c00fe020000a0
:020000040000fa
:04006000fe0200009c
:020000040000fa
:04006400fe02000098
:020000040000fa
:04006800fe02000094
:020000040000fa
:04006c00fe02000090
:020000040000fa
:04007000fe0200008c
:020000040000fa
:04007400fe02000088
:020000040000fa
:04007800fe02000084
:020000040000fa
:04007c00fe02000080
:020000040000fa
:04008000fe0200007c
:020000040000fa
:04008400fe02000078
:020000040000fa
:04008800fe02000074
:020000040000fa
:04008c00fe02000070
:020000040000fa
:04009000fe0200006c
:020000040000fa
:04009400fe02000068
:020000040000fa
:04009800fe02000064
:020000040000fa
:04009c00fe02000060
:020000040000fa
:0400a000fe0200005c
:020000040000fa
:0400a400fe02000058
:020000040000fa
:0400a800fe02000054
:020000040000fa
:0400ac00fe02000050
:020000040000fa
:0400b000fe0200004c
:020000040000fa
:0400b400fe02000048
:020000040000fa
:0400b800fe02000044
:020000040000fa
:0400bc00fe02000040
:020000040000fa
:0400c000fe0200003c
:020000040000fa
:0400c400fe02000038
:020000040000fa
:0400c800fe02000034
:020000040000fa
:0400cc00fe02000030
:020000040000fa
:0400d000fe0200002c
:020000040000fa
:0400d400fe02000028
:020000040000fa
:0400d800fe02000024
:020000040000fa
:0400dc00fe02000020
:020000040000fa
:0400e000fe0200001c
:020000040000fa
:0400e400fe02000018
:020000040000fa
:0400e800fe02000014
:020000040000fa
:0400ec00fe02000010
:020000040000fa
:0400f000fe0200000c
:020000040000fa
:0400f400fe02000008
:020000040000fa
:0400f800fe02000004
:020000040000fa
:0400fc00fe02000000
:020000040000fa
:04010000fe020000fb
:020000040000fa
:04010400fe020000f7
:020000040000fa
:04010800fe020000f3
:020000040000fa
:04010c00fe020000ef
:020000040000fa
:04011000fe020000eb
:020000040000fa
:04011400fe020000e7
:020000040000fa
:04011800fe020000e3
:020000040000fa
:04011c00fe020000df
:020000040000fa
:04012000fe020000db
:020000040000fa
:04012400fe020000d7
:020000040000fa
:04012800fe020000d3
:020000040000fa
:04012c00fe020000cf
:020000040000fa
:04013000fe020000cb
:020000040000fa
:04013400fe020000c7
:020000040000fa
:04013800fe020000c3
:020000040000fa
:04013c00fe020000bf
:020000040000fa
:04014000fe020000bb
:020000040000fa
:04014400fe020000b7
:020000040000fa
:04014800fe020000b3
:020000040000fa
:04014c00fe020000af
:020000040000fa
:04015000fe020000ab
:020000040000fa
:04015400fe020000a7
:020000040000fa
:04015800fe020000a3
:020000040000fa
:04015c00fe0200009f
:020000040000fa
:04016000fe0200009b
:020000040000fa
:04016400fe02000097
:020000040000fa
:04016800fe02000093
:020000040000fa
:04016c00fe0200008f
:020000040000fa
:04017000fe0200008b
:020000040000fa
:04017400fe02000087
:020000040000fa
:04017800fe02000083
:020000040000fa
:04017c00fe0200007f
:020000040000fa
:04018000fe0200007b
:020000040000fa
:04018400fe02000077
:020000040000fa
:04018800fe02000073
:020000040000fa
:04018c00fe0200006f
:020000040000fa
:04019000fe0200006b
:020000040000fa
:04019400fe02000067
:020000040000fa
:04019800fe02000063
:020000040000fa
:04019c00fe0200005f
:020000040000fa
:0401a000fe0200005b
:020000040000fa
:0401a400fe02000057
:020000040000fa
:0401a800fe02000053
:020000040000fa
:0401ac00fe0200004f
:020000040000fa
:0401b000fe0200004b
:020000040000fa
:0401b400fe02000047
:020000040000fa
:0401b800fe02000043
:020000040000fa
:0401bc00fe0200003f
:020000040000fa
:0401c000fe0200003b
:020000040000fa
:0401c400fe02000037
:020000040000fa
:0401c800fe02000033
:020000040000fa
:0401cc00fe0200002f
:020000040000fa
:0401d000fe0200002b
:020000040000fa
:0401d400fe02000027
:020000040000fa
:0401d800fe02000023
:020000040000fa
:0401dc00fe0200001f
:020000040000fa
:0401e000fe0200001b
:020000040000fa
:0401e400fe02000017
:020000040000fa
:0401e800fe02000013
:020000040000fa
:0401ec00fe0200000f
:020000040000fa
:0401f000fe0200000b
:020000040000fa
:0401f400fe02000007
:020000040000fa
:0401f800fe02000003
:020000040000fa
:0401fc00fe020000ff
:020000040000fa
:04020000fe020000fa
:020000040000fa
:04020400fe020000f6
:020000040000fa
:04020800fe020000f2
:020000040000fa
:04020c00fe020000ee
:020000040000fa
:04021000fe020000ea
:020000040000fa
:04021400fe020000e6
:020000040000fa
:04021800fe020000e2
:020000040000fa
:04021c00fe020000de
:020000040000fa
:04022000fe020000da
:020000040000fa
:04022400fe020000d6
:020000040000fa
:04022800fe020000d2
:020000040000fa
:04022c00fe020000ce
:020000040000fa
:04023000fe020000ca
:020000040000fa
:04023400fe020000c6
:020000040000fa
:04023800fe020000c2
:020000040000fa
:04023c00fe020000be
:020000040000fa
:04024000fe020000ba
:020000040000fa
:04024400fe020000b6
:020000040000fa
:04024800fe020000b2
:020000040000fa
:04024c00fe020000ae
:020000040000fa
:04025000fe020000aa
:020000040000fa
:04025400fe020000a6
:020000040000fa
:04025800fe020000a2
:020000040000fa
:04025c00fe0200009e
:020000040000fa
:04026000fe0200009a
:020000040000fa
:04026400fe02000096
:020000040000fa
:100400004f0521000eff27000e01880000000000ac
:10041000000020000000e000020032000001200087
:100420002002880014000700760007000000e000aa
:1004300003003a0060de21000100200002003700c6
:100440000000200001002000810f70000100320038
:100450000f000700000020000000e0000200320052
:100460000000020000000000101802000000000060
:100470000040da000000fe00802d20000000e000b7
:1004800002003200002020009001880000000600d9
:10049000a1028800800478000000eb001f003700f4
:1004a000e284440054a0b4009905ba00e2844400f8
:1004b00054a0b4009906ba00e284440054a0b400e9
:1004c0000006eb00476fde00fd07b200ae018800ba
:1004d000636ce10003003a000ad801000000eb0061
:1004e0000e003700606ce10008003a00004deb00a0
:1004f0000a05e800020039003420ec000af0a000f0
:100500008b05e900f9ff3e00040037006168e10057
:10051000010032000086eb000b00070019c7ba008b
:100520000e04e0001905ba0003003a000a00e000da
:10053000dbff3a0000000600fe07b200ae028800b2
:100540008a047800f5ff37000cd0a300e20f4d00bd
:100550001c00390089027800354dba000a05e80010
:10056000020039003420ec000af0a0008b05e900fd
:100570000f003200254dba000a05e80002003900dc
:100580003420ec000af0a0008b05e90008003200de
:100590000c00e0000600320015cdba000a05e800a4
:1005a000020039003420ec000af0a0008b05e900bd
:1005b0008984e80054a0b4000b00e000e2ff3a0098
:1005c000000006009902ba00055d78008b05e9007d
:1005d000f7ff3200c82ade00055d78008b05e900d0
:1005e000f3ff32000c00e000f1ff320019ddba0029
:1005f000eeff3700c2050400000000000040da00f2
:100600000000fe00000005006022b8000602200085
:100610000000d0008180d2000482d2008582d20006
:100620000000a0000202520083825a000300310041
:100630000202420083824a000000a1000603e90092
:10064000f3ff3a0000000600889fbe008a9fbe00ac
:1006500030044200b0844a0030054b0090854b00c6
:100660006000b1000898be000a90be000440e1009e
:1006700005c8e10006d0e10007d8e1000200310022
:10068000680040001008e8004f05be004f04be009f
:1006900000000600889fbe008a9fbe0010047800fc
:1006a0009004900020059000b005900004185400bc
:1006b00005985c0006185d0007985d001100200099
:1006c0000440e10005c8e10006d0e10007d8e100e0
:1006d000010039008000eb00108810004f05be00bb
:1006e0004f04be00000006001200fa00889fbe0002
:1006f0008a9fbe008c9fbe00e0b79f00f1b79f00ad
:1007000082bf9f0093bf9f000605be000404be0089
:100710000000eb00d0b79f00c0b79f00b0b79f00ac
:10072000a0b79f0090b79f000006eb005fb1970055
:10073000cfb09700820141003fb097000200e00077
:1007400004003d00370007007e805700beff070011
:1007500003003700330007007e805700cdff0700fd
:10076000dfb697000d00e0000c0035006fb2970077
:10077000ffb297000fbb97009fbb970010002000af
:10078000010020006011b800000272008182720036
:1007900002037300838373001b0007000c06e8004c
:1007a00001042000810f5600e0ff3a000d00e00038
:1007b00004003d000802be000a03be007e80570010
:1007c000a1ff07005fa897000000e00005003a00c5
:1007d0001fb29700afb297003fb39700cfb3970017
:1007e000090007006fb09700ffb097000fb997009e
:1007f0009fb997004f06be004f05be004f04be00d4
:100800000080fa000000060001000700000006005a
:10081000a4b79f00b5b79f00c6b79f00d7b79f008a
:10082000000006004f09de0082817100b3b79f000f
:100830004f01de008180400082807000a1b79f00e0
:100840008fb097004f09de000000400002007000ea
:1008500090b79f007fa897004f01de008180400085
:100860008280700081b79f000d0007004f3ade00c4
:100870000000400004007000f0af9f000800070077
:100880000402420085824a0006034b0087834b0026
:10089000dfff07000802be000a03be0000000600da
:1008a0002fb29700bfb297004fb39700dfb3970006
:1008b00000000600881f780018002000881f7800bc
:1008c00089ff07008f87e9004f04780000000600c9
:1008d000801feb0084ff07008f87e90000000600ff
:1008e000889fbe008a9fbe00e00f5000e08f580036
:1008f000e00f5900e08f59000c003d006044b80043
:100900006055b8000000540081805c0002015d0069
:1009100083815d00180020001500070008003d00dd
:10092000180007000004eb00050037000004eb008e
:100930000f00070002003d00120007001800200011
:10094000dcff07000800e000060032006022b8006b
:100950006033b8000000520081805a0002015b0041
:1009600083815b004f05be004f04be0000000600ff
:10097000e00f5200e08f5a00e00f5b00e08f5b0059
:10098000000006006044b8006055b800040254003e
:1009900085825c0006035d0087835d000000060021
:1009a000889fbe008a9fbe008c1f7800e00f500019
:1009b000e08f5800e00f5900e08f59000d003d0016
:1009c0006044b8006055b8000000540081805c00ad
:1009d00002015d0083815d001c0020000820e10011
:1009e00009a8e1000ab0e1000bb8e1000d003d00ec
:1009f000080037000006eb00e00f5200e08f5a00bd
:100a0000e00f5b00e08f5b0006003d006044b80033
:100a10006055b8000402540085825c0006035d0046
:100a200087835d00aaff07000c00e000060032008b
:100a30006022b8006033b8000000520081805a0084
:100a400002015b0083815b004f0678004f05be000a
:100a50004f04be0000000600889fbe008a9fbe00b3
:100a60008c1f78000006eb00e00f5000e08f58006c
:100a7000e00f5900e08f590007003d006044b800c6
:100a80006055b8000000540081805c0002015d00e8
:100a900083815d001c002000e00f5200e08f5a00af
:100aa000e00f5b00e08f5b0007003d006044b80092
:100ab0006055b8000402540085825c0006035d00a6
:100ac00087835d000c00a2000c0007000c00e00012
:100ad000060032006022b8006033b8000000520007
:100ae00081805a0002015b0083815b004f06780021
:100af0004f05be004f04be0000000600889fbe00e8
:100b00008a9fbe008c9fbe000404b8000506b80092
:100b10008904460060854e000606b8000a054600b6
:100b2000e0854e000706b8008b054600040eb800ad
:100b3000890446000a854e00e0854d00050eb80088
:100b40000a0546008b854e00060eb8008b05460050
:100b50000416b8000a0546008b854e000516b8003d
:100b60008b054600041eb8008b0546000800be0039
:100b70000a01be004f06be004f05be004f04be0076
:100b800000000600881f7800020478000801780041
:100b9000c4000700080040004f0478000000060071
:100ba0000000fa00881f780000047800ea815700ee
:100bb0003fb9970088007800205c200007000700fc
:100bc0000000e0000200350000044400004ceb008f
:100bd0004f0478000080fa00000006006200fa006e
:100be000889fbe008a1f7800000578008104780085
:100bf000020478008300780080f92f000f00400085
:100c0000770107009a979f00a9979f000000eb00cb
:100c1000b09f9f001885fb008a04fb000a05ea00cc
:100c20004f55de0050022000808f54000d0032002e
:100c3000e10f55000b003a000a01780088007800a7
:100c40002f9097009f91970003000100a0979f00ad
:100c50000000e0008e0032003f9897000000e8009e
:100c6000b09f9f000a04440050022000808f54006f
:100c7000040032000900e000e6ff3a003f989700c8
:100c8000840037000000eb00909f9f00809f9f0032
:100c9000f0979f00e0979f00d0979f00c0979f001c
:100ca00007003700e104210001005000000040006f
:100cb00021042100808040005f989700110070009f
:100cc000d09f9f0088047800090478003845780098
:100cd0008a00fb00e0042100790007000000e0002a
:100ce000f0ff3a00a1c2b300814f55000e003a0058
:100cf000cf8897000180e900c08f9f001000780026
:100d0000c09f9f000000e00005003d000000ea00d9
:100d1000c09f9f005f9897000020a000d09f9f0079
:100d20000904e8000f003700c09f9f000000eb009f
:100d300005003700f2ff2700820f5000020032004a
:100d4000ea00b900008040000904780088047800b7
:100d5000b900fb000103b100e98f5000f5ff360038
:100d6000c09f9f00e0c2b300984f10000200320005
:100d70000080eb0019003700a0c2b300d84f10006c
:100d800007003a00cf8897000180e900c08f9f00dc
:100d900010007800a09f9f000804e80010003700b2
:100da0000000eb00a09f9f0088007800050037003e
:100db000f3ff2700830f500002003200ea00b90061
:100dc0000000410001047800880078003101fb0038
:100dd0000203b100e90f5100f5ff3600a09f9f000c
:100de000984478008900fb00a0032100340007002c
:100df0000000e000020032000804e80001003700b3
:100e00008044eb00c97f9f0080c6b30080cf5400b0
:100e100004003a0098cf14000a003a0066405000df
:100e200006003700c0c6b30080cf540005003a006a
:100e300098cf140003003a0065404000c07f9f0037
:100e40000804e8001801fb00e3fb2f008f8141003c
:100e500081f92f008f804000a0f92f000f00400083
:100e6000e10007000000e00009003a00e1fb2f006c
:100e70008f804000a0f92f000f0040001c000700e9
:100e80000000e000020035000804e80061ff3700c0
:100e90000080eb004f0578004f04be000080fa0090
:100ea000000006008001780002003700b159780088
:100eb0000201e9000200e000fcff3a000000060029
:100ec000020037000304e000060032000001780051
:100ed00002007800b041780081cf5100f9ff3a005c
:100ee000010037000001eb0002007800000006005e
:100ef0000400fa00889fbe008a9fbe008c1f780005
:100f00000004780001067800f80d90007800900049
:100f100080855500080890008085550018089000cd
:100f2000808555002808900080855500380890007d
:100f300080855500480890008085550000022200f9
:100f400090bf9f0000032300a0bf9f0008109000e7
:100f50000028a30015003a000b00e0001300340045
:100f60000b0578008a047800e20f55000100360076
:100f700029002000c801900009017800ee80570088
:100f80005800900003000100500498000000e000a9
:100f90008c0032006808900009004000600c980046
:100fa000090555004240a900eeff3c007801900081
:100fb0000200e0000c003400c80190008c007800b2
:100fc0005800900003000100500498008080eb005e
:100fd0000000e0007c003200e808900078009000fb
:100fe00000804000600c9800880c90000900e00030
:100ff0001100340009057800e28f5400010036002a
:101000002a002000c80190000a017800ec805700f7
:101010005800900003000100500498000000e00018
:1010200068003200680890000a004000600c9800d8
:101030008a845400edff3700180990000200e00098
:101040000c003400c8019000e800900058009000a7
:1010500003000100500498008080eb000000e000d5
:1010600059003200e8089000180890000080400005
:10107000600c9800a80c90000900e00011003400fa
:1010800009057800e28f5400010036002a00200094
:10109000c80190000a017800ec80570058009000c9
:1010a00003000100500498000000e00045003200f9
:1010b000680890000a004000600c98008a84540080
:1010c000edff3700380990000200e0000e00340008
:1010d000e80090001808900080804000c80190004f
:1010e0005800900003000100500498008080eb003d
:1010f0000000e00034003200e8089000380890005a
:1011000000804000600c9800c80c90000900e000ce
:101110001100340009057800e28f54000100360008
:101120002a002000c80190000a017800ec805700d6
:101130005800900003000100500498000000e000f7
:1011400020003200680890000a004000600c9800ff
:101150008a845400edff3700081090008000eb00f7
:101160000028a300180032000b00e0001600340035
:101170008b04780009057800e28f540001003600e6
:101180002a002000c80190000a017800ee80570074
:101190005800900003000100500498000000e00097
:1011a00008003200680890000a004000600c9800b7
:1011b0008a8454004240a900eeff3c008000eb000e
:1011c000010037008080eb00010078004f067800b6
:1011d0004f05be004f04be000080fa00000006006c
:1011e0000108780000000600889fbe008a9fbe00ac
:1011f000e4c6b300844f5100ce00320010003c0022
:101200006b425200844f51001800320005003c0030
:1012100054c2b300844f51000601320084c5b300ac
:101220000f00370044c6b300844f51001500320050
:1012300065424200844f510001013a00110037001d
:1012400004c7b300844f5100ed0032005f00350049
:1012500065424200844f51005c003200634242000c
:10126000844f5100f6003a00580037001181e90020
:1012700082087800f0009000818141009249780056
:10128000f500370020629000c5c6b300854f5200bc
:1012900008003a00910278006482520084087800c5
:1012a00094029000140278004fabde0086037800b1
:1012b0001600370015c7b300854f520003003a00ef
:1012c000110478006802540005003700a5c6b30079
:1012d000854f520008003a0091047800688254005b
:1012e000840878009402900024039000b4039000d6
:1012f00014027800050037001182e90084087800a4
:1013000014027800cfa2de00612bb9000498be0061
:101310000690be00a060900088c6b30088cf500041
:101320000d00320028c6b30088cf500004003a00f8
:101330000402fb00cfa2de00612bb90008003700d9
:1013400048c7b30088cf5000030032006644440011
:1013500088cf500004003a00cfa2de00612bb90014
:101360000498be000690be00100278009002900023
:1013700020039000b0039000f0009000e00f5200b6
:10138000e08f5a00e00f5b00e08f5b0003003d0040
:1013900001824100d5c2b3000a003700001290005c
:1013a0000418a3000300320001824100b5c2b3005b
:1013b000040037000408a3005900320001824100f4
:1013c00005c2b300054a7800530037002062900040
:1013d000c5c6b300854f520009003a0011057800d8
:1013e0006402550084087800140478009404900086
:1013f0006055b8000802be000a03be0016003700a0
:1014000015c7b300854f520003003a0091047800dd
:101410006882540005003700a5c6b300854f52000e
:1014200008003a0011057800680255008408780029
:101430009402900024039000b403900014027800fa
:10144000050037001182e900840878001402780052
:101450008002eb006033b8000498be000690be0026
:10146000a060900088c6b30088cf50000d00320005
:1014700028c6b30088cf500004003a000482fb0065
:101480008002eb006033b8000800370048c7b300a3
:1014900088cf5000030032006644440088cf5000db
:1014a00004003a008002eb006033b8000498be00ec
:1014b0000690be00801090000138a3001800320092
:1014c000100278009002900020039000b00390007a
:1014d000e00f5200e08f5a00e00f5b00e08f5b00ee
:1014e0000f00320081c7b300814f5100030032006a
:1014f00081c5b300814f510009003a00f00090000f
:101500000182410005c3b300054a78008100e8006c
:1015100001824100024a78008100e80071009800d1
:10152000f0009000818141006300980082407800c3
:101530003e003700a0619000c4c6b3001181e900ed
:1015400084cf5100220032000a003c006442520065
:1015500084cf51002500320004c2e80084cf51003e
:10156000130032006842520084cf51001e003a003e
:101570000a00370044c7b30084cf51001b0032007b
:101580006642420084cf5100180032006942520086
:1015900084cf510014003a0005003700820878001b
:1015a0009200780040589000804878002c00370066
:1015b0008208780092007800600a9000cfa2de00d6
:1015c000612bb9008498be008690be0024003700cd
:1015d000820878009200780060099000cf91de00c8
:1015e0008288be001e0037001181e9008208780061
:1015f000920078006008900080087800180037009a
:101600001181e9008208780012027800cfa2de0082
:10161000612bb9000498be000690be00f000900057
:10162000818141006300980081c7b300100007006a
:101630000b003700f0009000818141000500370069
:10164000f0009000818141000204e00001003a00b6
:1016500052c2b300824978008100e800710098000e
:101660000000eb004f05be004f04be000000060066
:10167000fc874700889fbe008a9fbe008c9fbe00eb
:101680008e1f78000006780080c5b30080cf500020
:101690000a0032007740400080cf50000a0032003c
:1016a0006940400080cf50000b00320090022100c2
:1016b00080bf9f00ae0020000a0037008201210099
:1016c00082bf9f00060037009302210083bf9f0066
:1016d0008e002000030037009402210084bf9f0089
:1016e0000e0120001c0278009c0290002c03900048
:1016f000bc0390000605be000404be0040c6b30053
:1017000080cf5000030032006540400080cf500081
:101710000b003a00e00f5200e08f5a00e00f5b0030
:10172000e08f5b0006003d006000b8006011b8006b
:101730000404500085845800060559008785590027
:10174000e80f57000400320040002000f00f57005f
:101750003c003a000100370030002000e00f540048
:10176000e08f5c00e00f5d00e08f5d0004003a0058
:10177000dc0890008d0120000100e000070032002d
:101780008e00e900888060008fba97008180420057
:1017900091407800f1ef9f007d01200080007800eb
:1017a0008100e900050033008b05d1000a85d300d4
:1017b0008984d3000884d300f9ff3700089ebe0057
:1017c0000a96be00130037008d06e9008e00e9007e
:1017d000848060000fb997008100410011417800ba
:1017e00083fd2f008d81410082f779008001780010
:1017f0008301e900050033008783d1000683d3000d
:101800008582d3000482d300f9ff3700049ebe0016
:101810000696be001c0278009c0290002c039000eb
:10182000bc039000e00f5200e08f5a00e00f5b0015
:10183000e08f5b00930034000d00e000e2ff3c000d
:10184000900037002c60900081c6b300814f50009b
:101850000b00320006003c000004e00008003200eb
:10186000e6c05000814f500052003a00040037009b
:10187000c1c6b300814f50004e003a00230037002c
:101880000800e00004003a005c0890008d01200090
:101890000000e00007003200110009000e84d800ab
:1018a0000fba97000100420010407800f0ef9f004f
:1018b0007d012000110009000e84d8000b003700c4
:1018c000110009000e04d8008d06e9008e81b900d0
:1018d000020454008fb897000884400098417800b3
:1018e00082fd2f000d01410083777900000478000c
:1018f0000800e000020032000d00e000f0ff3c00b4
:10190000cfc4de00614db90027003700e00f54005e
:10191000e08f5c0004003a005c0890008d0120001c
:101920000000e000080032006171b9000800be004c
:101930009b0007000fba970080004200914078009a
:10194000f1ef9f007d0120006171b9000800be0029
:101950002dfb07000c0037006171b9000800be00c4
:10196000800007008d06e90080f1b90002045400f0
:101970008fba9700088442009841780082fd2f00ba
:101980000d014100837779000004be00e00f500094
:10199000e08f5800020032000d00e000eeff3c0036
:1019a0004fcdde008a057800089ebe000a96be0074
:1019b00034003700e00f5400e08f5c00e00f5d0062
:1019c000e08f5d0004003a005c0890008d0120006b
:1019d0000000e0000a0032006172b900612bb9001a
:1019e0000800be000a01be00b9fb07000fba97004d
:1019f0008000420091407800f1ef9f007d012000bf
:101a00006172b900612bb9000800be000a01be0076
:101a1000a8fb07000e0037006172b900612bb90006
:101a20000800be000a01be00adfb07008d06e900fc
:101a300080f2b900040454008fba97000884420071
:101a40009842780084fd2f000d02420085777a00cd
:101a5000009ebe000296be001c0478009c0490000c
:101a60002c059000bc059000e00f5400e08f5c0056
:101a7000e00f5d00e08f5d00020034000d00e0002b
:101a8000e5ff3c00e80f570010003a000c109000f2
:101a90000038a3000d003200f78f560006003e000c
:101aa00080fd2f000d004000ef40780000c3b30020
:101ab00080cf50000500320002c3b30071fd2f003b
:101ac0008d8040008d06e90082f77800788116004d
:101ad000120e98006c00900083fd2f008f81410052
:101ae0008d804100effc07001c089000dc0890008e
:101af000810f500006003d0000805000000e98004d
:101b00000c1090000040a100001698000f00370054
:101b10000100e0000d003d008c109000f48060009a
:101b2000f08f500009003a007c099000fc00900002
:101b3000810051000c09900082805000008050000c
:101b40004240a90001003400000e98004f077800c1
:101b50004f06be004f05be004f04be00cf01b100ce
:101b600000000600839f68000100e00002003d00c5
:101b700060001000e08018000300e00002003d005b
:101b800060011100e08119009ffa07004f00e0009a
:101b900002003b0060001000e0801800000006001a
:0c1ba00099fa07000400be0000000600d7
:020000040000fa
:101bac00576500006c6300006f6d0000652000003d
:101bbc00746f000020200000004300004845000026
:101bcc0053530000434c00004f4300004b000000f7
:101bdc005365000074200000546900006d6500001e
:101bec003a2000002530000032640000206d000017
:101bfc00696e0000006d0000696e00003a20000064
:101c0c002530000032640000206d00006178000077
:101c1c003a20000025300000326400000053000020
:101c2c006574000020540000757200006e73000093
:101c3c003a20000025300000326400002000000033
:101c4c005365000074200000426f00006e750000a8
:101c5c00733a00002025000032640000207300005d
:101c6c00006d0000696e00003a200000303000006a
:101c7c00206d0000617800003a2000002530000043
:101c8c0032640000004300007265000061740000c3
:101c9c006564000020620000793a0000200000001a
:101cac005374000075640000656e000074730000ce
:101cbc003a200000005400006f62000069610000cf
:101ccc00732000004861000061670000004a0000ba
:101cdc00616e000020530000636800006e65000018
:101cec006964000065720000004d00006172000024
:101cfc00637500007320000053630000686f0000e0
:101d0c006368000000460000656c00006978000004
:101d1c002053000075650000737300000020000064
:101d2c00005300007065000063690000616c0000e6
:101d3c0020540000686100006e6b000073200000ee
:101d4c00007400006f2000006f750000722000000e
:101d5c00507200006f660000200000004a75000001
:101d6c0065720000676500006e2000005363000080
:101d7c0068750000656c00006520000000530000d1
:101d8c0065740000746900006e6700007300000049
:101d9c003e2000005365000074200000746f0000aa
:101dac00746100006c200000746900006d65000017
:101dbc000a00000020200000536500007420000081
:101dcc0074750000726e0000206200006f6e0000df
:101ddc0075730000002000002053000065740000a3
:101dec00207400006f740000616c0000207400000f
:101dfc00696d0000650a0000003e000020530000e1
:101e0c006574000020740000757200006e73000091
:101e1c00200000002020000053650000742000000a
:101e2c0074750000726e0000730a0000003e000022
:101e3c0020530000657400002074000075720000cf
:101e4c006e200000626f00006e75000073000000d1
:101e5c002020000053650000742000007475000001
:101e6c00726e0000206200006f6e0000757300003f
:101e7c000a0000003e200000536f0000756e000049
:101e8c0064730000204f00006e2f00004f660000ae
:101e9c006600000020200000536f0000756e0000eb
:101eac0064730000204f00006e2f00004f6600008e
:101ebc00660a0000003e000020430000726500002e
:101ecc006469000074730000003e000020530000a1
:101edc006f7500006e640000732000004f6e0000f0
:101eec002f4f0000666600000a0000002020000052
:101efc004372000065640000697400007300000008
:101f0c003e20000053650000742000007475000032
:101f1c00726e0000206200006f6e0000757300008e
:101f2c000a00000020200000536f0000756e0000b6
:101f3c0064730000204f00006e2f00004f660000fd
:101f4c00660000003e200000536500007420000075
:101f5c0074750000726e0000730a0000002000000f
:101f6c00205300006574000020740000757200009e
:101f7c006e200000626f00006e7500007320000080
:101f8c000020000020530000657400002074000045
:101f9c00757200006e7300002000000020750000b8
:101fac007365000064200000746900006d6500001a
:101fbc003a00000025300000326400003a25000091
:101fcc0030320000642000006d6900006e200000bb
:101fdc002f200000256400002525000000200000b3
:101fec0020200000476100006d650000204f0000bc
:101ffc00766500007220000000500000204f0000a9
:10200c006e65000020540000696d0000656f0000d3
:10201c00757400002100000050200000547700006f
:10202c006f200000546900006d6500006f750000a2
:10203c0074210000002000004e6f000020540000ae
:10204c00757200006e730000204c00006566000085
:10205c00740000002020000020200000696e0000a9
:10206c0020740000696d0000652000002020000035
:10207c0020000000502000004f6e000065000000a2
:10208c0050200000547700006f0000002120000059
:10209c00686100006e6400006c650000456e000015
:1020ac00646900006e6700000025000032640000c7
:1020bc002e500000204f00006e6500003a200000fa
:1020cc0025300000326400003a2500003032000058
:1020dc006400000025320000642e00005020000037
:1020ec00547700006f3a00002025000030320000c9
:1020fc00643a00002530000032640000000000004b
:10210c0021200000696e0000697400005069000015
:10211c006e00000021200000646900006769000067
:10212c00746100006c5200006561000064000000e6
:10213c0021200000646900006769000074610000e0
:10214c006c5700007269000074650000000000000c
:020000040000fa
:10215c000400fa00204798000ad0bf000041780024
:10216c0001322000200320003b0607002e40900087
:10217c000004e0000e00320080002000000f780008
:10218c0007003700110020001e0078000008dd0059
:10219c00e2050700200320001e0607001e0fe800c2
:1021ac001e007800eb0f5000f6ff34000d003700d6
:1021bc00b0002000000f780007003700110020004d
:1021cc001e0078000008dd00d40507002003200065
:1021dc00100607001e0fe9001e007800e70f5000e4
:1021ec00f6ff3c000080fa00000006000000fa0038
:1021fc000101200060dd2800c40307008000eb0013
:10220c0010002000d30407000101200030de28005c
:10221c00be03070010c0b300cdff07000040eb0069
:10222c00cbff07000080fa00000006002000fa0037
:10223c00320037001b040700618080009088280062
:10224c000008b8004508de00801f7800e0de28009a
:10225c00801f78000e0078004efa0700e4875700c4
:10226c00010120000e007800a80307007000470051
:10227c00a1052000811f780011002000811f78002b
:10228c0011e02800811f780042fa0700e68757000a
:10229c008000eb0010002000ae0407007000470027
:1022ac000101200099030700b10507008000fb0025
:1022bc00c00320008088b900800078006080800016
:1022cc00008040006080880061808000b0032000a6
:1022dc00808f500003003e00c00320006080880007
:1022ec00060037006180800080512100808f5000f3
:1022fc00020036008051210060808800d000200050
:10230c000a0507000004e000caff3a000080fa004a
:10231c00000006002000fa002b003700e103070044
:10232c0070808000801f780050e12800801f7800aa
:10233c000e00780017fa0700e4875700010120000f
:10234c000e00780071030700700047002103200085
:10235c00811f780021002000811f780011e02800e7
:10236c00811f78000bfa0700e68757008000eb000e
:10237c0010002000770407007000470001012000c6
:10238c00620307007a0507008000fb007080800064
:10239c00008040007080880070808000e10f500049
:1023ac0003003e00200320007080880006003700e8
:1023bc007180800020032000808f500002003600c6
:1023cc002000200070808800d0002000d704070077
:1023dc000004e000d1ff3a000080fa000000060083
:1023ec002000fa0028003700ae03070000808000b0
:1023fc00801f780060e22800801f78000e007800b3
:10240c00e4f90700e4875700010120000e00780072
:10241c003e03070070004700c1032000811f7800b5
:10242c0071e32800811f7800daf90700e487570070
:10243c008000eb00100020004604070070004700ed
:10244c000101200031030700490507008000fb0053
:10245c0000808000008040000080880000808000a8
:10246c000000e00002003d000030ef0006003700e5
:10247c0001808000c0032000808f500002003400d7
:10248c00c003200000808800d0002000a7040700b3
:10249c000004e000d4ff3a000080fa0000000600bf
:1024ac000000fa007f0307000101200090e42800df
:1024bc00160307008000eb00100020002504070025
:1024cc000101200060e5280010030700820037009e
:1024dc00270507008000fb00108080000080400072
:1024ec0010808800108080000000e0000b003a0093
:1024fc006c0307000101200090e42800030307008f
:10250c008000eb00100020001204070001012000e5
:10251c0060e52800fd0207006f0037001080800086
:10252c00e10f50000b003a005e0307000101200090
:10253c0060e52800f50207008000eb001000200089
:10254c00040407000101200010e62800ef02070038
:10255c006100370010808000e20f50000b003a0041
:10256c00500307000101200010e62800e7020700d5
:10257c008000eb0010002000f60307000101200092
:10258c00d0e62800e10207005300370010808000dd
:10259c00e30f50000b003a0042030700010120003a
:1025ac00d0e62800d90207008000eb0010002000c4
:1025bc00e803070001012000b0e72800d302070060
:1025cc004500370010808000e40f50000b003a00eb
:1025dc003403070001012000b0e72800cb020700fc
:1025ec008000eb0010002000da030700010120003e
:1025fc0090e82800c50207003700370010808000e3
:10260c00e50f50000b003a002603070001012000e3
:10261c0090e82800bd0207008000eb0010002000ad
:10262c00cc0307000101200050e92800b702070085
:10263c002900370010808000e60f50000b003a0094
:10264c00180307000101200050e92800af02070021
:10265c008000eb0010002000be03070001012000e9
:10266c0070e92800a90207001b00370010808000c9
:10267c00e70f50000b003a000a030700010120008d
:10268c0070e92800a10207008000eb001000200078
:10269c00b00307000101200070ea28009b0207002c
:1026ac000d00370010808000e80f50000a003a003f
:1026bc00fc0207000101200070ea280093020700c9
:1026cc008000eb0010002000a20307000101200095
:1026dc0040eb28008d020700d000200013040700f7
:1026ec000004e0007aff3a000080fa0000000600c7
:1026fc000000fa000ad0bf00e14f500002003a007f
:10270c000a70ef000200370010c0b3000af0b700e7
:10271c000080fa00000006000800fa00e102070041
:10272c000101200050ec2800780207000ad0bf00fd
:10273c000041780001322000803e2000c6040700d2
:10274c0000c0eb00004f78001e4078000040e9000c
:10275c0010479800ae0037008504070080407800d1
:10276c001e40780000c04000004f78001e407800ea
:10277c000004e000a60032001e407800e14f50003b
:10278c000c003a001e4090009e40780080cf500014
:10279c0008003400c302070001012000e0ec28000f
:1027ac005a0207000101200000ee28005702070022
:1027bc00920037001e407800e24f50000c003a00a7
:1027cc001e4090009e40780080cf500008003400de
:1027dc00b40207000101200010ef28004b02070093
:1027ec000101200030f02800480207008300370068
:1027fc001e407800e34f50000c003a001e40900041
:10280c009e40780080cf500008003400a5020700dd
:10281c000101200000f128003c020700010120000a
:10282c00d0f1280039020700740037001e407800f0
:10283c00e44f50000f003a001e4090009e4078007c
:10284c0080cf50000b0034009602070001012000dd
:10285c00e0f228002d0207008000eb0010002000a1
:10286c003c0307000101200000f4280027020700a8
:10287c00620037001e407800e44f50000f00340017
:10288c001e4090009e40780080cf50000b0034001a
:10289c00840207000101200000f528001b0207003c
:1028ac008000eb00100020002a030700010120002b
:1028bc0010f6280015020700500037001e40780063
:1028cc00e44f50000f003a001e4090009e407800ec
:1028dc0080cf50000b003d00720207000101200068
:1028ec00b0f62800090207008000eb001000200061
:1028fc001803070001012000c0f72800030207009d
:10290c003e0037001e407800e34f50000f003a00a5
:10291c001e4090009e40780080cf50000b003d0080
:10292c00600207000101200060f82800f701070091
:10293c008000eb00100020000603070001012000be
:10294c0080f92800f10107002c0037001e407800a8
:10295c00e24f50000c003a001e4090009e40780060
:10296c0080cf5000080034004e0207000101200007
:10297c0080fa2800e50107000101200050fb280027
:10298c00e20107001d0037001e407800e14f5000a7
:10299c000f003a001e4090009e40780080cf5000ff
:1029ac000b003d003f02070001012000e0ec280075
:1029bc00d60107008000eb0010002000e5020700a4
:1029cc000101200070fc2800d00107000b0037002b
:1029dc001e407800e44f50000300340050c0b30098
:1029ec00004f7800050037001e4078000004e0001e
:1029fc0002003c0010c0b300004f78001e40900055
:102a0c009e4f5000020032009e4078001147980003
:102a1c00d0002000450307000004e0004eff3a0000
:102a2c001e4078000004a2000080fb000000e900ba
:102a3c004f00de00204798001e4078000014a200d2
:102a4c000080fb000000e9004f00de0030479800da
:102a5c009e40780063c068000080fb000000e90025
:102a6c004f00de00404798001e4078000024a20072
:102a7c000080fb000000e9004f00de00504798008a
:102a8c0010c0b3009e407800e4cf500001003c0021
:102a9c000040eb00604798000ad0bf00004178006e
:102aac0001322000803e2000eb0307002e409000f6
:102abc000004e00002003200dcfd070013003700c8
:102acc003e4090000004e0000200320011fe0700be
:102adc000e0037004e4090000004e000020032006f
:102aec003ffe0700090037005e4090000004e00044
:102afc0002003200fefe0700040037006e4090001a
:102b0c000004e0000100320065fe07000ad0bf009f
:102b1c0000417800014b2000803e2000ce030700ce
:102b2c000080fa00000006001600fa00100f980052
:102b3c00210f9800db010700510020001e089000b7
:102b4c0072010700b100200040fd28006f01070052
:102b5c00618080002e089000008f50008000eb00f8
:102b6c00100020007b0207009e0078004006200029
:102b7c008088b900800078006080800000017800b7
:102b8c00110009008280d800000278001e01780034
:102b9c00908828000010b8004508de00c103200012
:102bac008180b900000051001e0178009188280036
:102bbc000111b8004519de008e80e800841f7800f2
:102bcc00801f7800821f780000fe2800801f78008c
:102bdc0001007800eff70700e88757000e80e80047
:102bec0001012000490107000080fa0000000600e6
:102bfc000000fa00ab010700f100200050ff280094
:102c0c00420107008000eb00100020005102070079
:102c1c00908080000000e00004003a0001012000d8
:102c2c003000290039010700160037008080800031
:102c3c000000e00004003a000101200020012900fe
:102c4c00320107000f003700218080007080800067
:102c5c00808f500008003900318080007080800027
:102c6c00808f50000400390001012000100229005f
:102c7c002601070003003700e100200000032900b3
:102c8c00220107000080fa00000006000200fa0092
:102c9c00d7ff070001003700000000006000200093
:102cac00a20207000004e000fbff3a000040eb002a
:102cbc00004f780023003700600020009b020700c3
:102ccc000004e0001f003a001e80fb000000e00042
:102cdc0003003200e10f5000060032000a003700fa
:102cec009080800080007800000429008eff07008f
:102cfc000c00370080808000800078006004290080
:102d0c0089ff07000700370066010700010120005a
:102d1c00c0042900fd000700803e20003d03070091
:102d2c00000000001e4fe8009e40780061cf60005c
:102d3c000ad0bf000041780001322000401f200063
:102d4c004503070050002000780207000004e00053
:102d5c00d9ff3a000ad0bf00004178006109200079
:102d6c00803e20003c0307000080fa0000000600b3
:102d7c000000fa000970ef000870ef00608080001e
:102d8c009080880060808000808088000430ef0094
:102d9c000630ef000080fa00000006001000fa0078
:102dac004001070092808000908828000010b80035
:102dbc004508de00c10320008180b90000005100ed
:102dcc0092808000918828000111b8004519de001e
:102ddc0021808000801f7800821f7800811f78007e
:102dec00b0052900801f78000e00780069f70700f5
:102dfc00e88757008000eb000000eb00d5010700ce
:102e0c00010120000e007800c000070082808000c5
:102e1c00908828000010b8004508de00c10320008f
:102e2c008180b900000051008280800091882800c8
:102e3c000111b8004519de0031808000801f780038
:102e4c00821f7800811f780000072900801f7800fe
:102e5c000e0078004ff70700e88757008000eb0062
:102e6c0010002000bb010700010120000e007800bb
:102e7c00a60007000080fa00000006000000fa001f
:102e8c002a00370040002000280207000004e00060
:102e9c0011003a0008d0bf000004a2000004e000ba
:102eac000d003200308080000000e8003080880087
:102ebc00818080000080800000804000808088003d
:102ecc0010c0b30008f0b7000970ef00b3ff0700a3
:102edc000040eb009efc070070002000130207006e
:102eec000004e00011003a0009d0bf000004a20069
:102efc000004e0000d003200208080000000e8009b
:102f0c00208088009180800000808000008040003c
:102f1c00908088000870ef0010c0b30009f0b70073
:102f2c009eff070010c0b30089fc07000040800022
:102f3c00680060000000e000d2ff3200004080001a
:102f4c00680060000000e0002f0032000068a9005b
:102f5c000021ef0040422f00100888000060fe00a6
:102f6c00d0002000f10107000004e00002003a004c
:102f7c00e9fd07007eff070008d0bf000004e00059
:102f8c0004003200808080000000e900808088000e
:102f9c000900370009d0bf000004e0000400320033
:102fac00908080000000e9009080880002003700cb
:102fbc006000200059020700218080007080800092
:102fcc00808f5000040039003180800070808000b8
:102fdc00808f50000a003100908080000000e000db
:102fec0007003200808080000000e0000400320006
:102ffc0050002000cd0107000004e00002003a0060
:10300c0022ff07005aff070064ff070000000000c2
:10301c00c6ff37000400fa00000f78001107980073
:10302c000000eb006f010700100020006d0107008d
:10303c00200020006b010700300020006901070010
:10304c0040002000670107005000200065010700c8
:10305c006000200063010700700020006101070080
:10306c0039020700c60207006402070007000700c8
:10307c005efc0700803e2000660207007fff070011
:10308c000000eb000080fa00000006000000fa00cf
:10309c00f03f2000103088003038280000308800c5
:1030ac001000200060308800907f24000100200078
:1030bc00050107000426ef00800320004030880043
:1030cc00c000200001002000ff0007000426ef00d4
:1030dc00c000200040308800c0002000010020000b
:1030ec00f90007000426ef00600020004030880043
:1030fc00c000200001002000f30007006900070059
:10310c0010c0b3000080fa00000006000600fa00b0
:10311c0010079800210798000000eb00000f7800c2
:10312c000b0037001e0090001e004000104078007d
:10313c000000fb000000e0000a0032001e009000be
:10314c001e00400010407800090007001e0fe80028
:10315c002e0090009e007800808f5000f1ff390007
:10316c0001003700000000000080fa00000006009b
:10317c000200fa00004f78001e00fb00ea0f50001e
:10318c000e003200ea0f500003003c00e80f500024
:10319c00150032001b003700ec0f500017003200f6
:1031ac00ed0f500017003a0016d0bf00ea4f500048
:1031bc00360032004c0007003500370016d0bf0037
:1031cc00ed4f5000010032004700070014d0bf0043
:1031dc000004e00002003a00b00007002c003700a9
:1031ec00a30007002a0037005300070000c2b300f9
:1031fc00dfff0700500007002500370029000700fb
:10320c002300370015d0bf00f04f500014003a00d7
:10321c001570ef0014d0bf000004e00009003a0064
:10322c000426ef00000c200040308800c000200075
:10323c0001002000a400070010c0b30014f0b70078
:10324c00070037000426ef000008200040308800fb
:10325c00c0002000010020009b0007001470ef004c
:10326c0010002000203088001e00fb004030880039
:10327c00c0002000010020009300070015d0bf0003
:10328c000040e80015f0b700010037000000000016
:10329c001e41780061012100824878000080fa000c
:1032ac00000006000000fa000426ef0010002000c9
:1032bc0040308800701f20000100200082000700b1
:1032cc000426ef002000200040308800701f2000f2
:1032dc00010020007c0007001470ef001570ef0057
:1032ec000080fa00000006000000fa0014d0bf00b5
:1032fc000004e00007003a000426ef00000820005c
:10330c0040308800c0002000010020006e00070043
:10331c00060037000426ef00000c20004030880027
:10332c00c000200001002000670007001570ef00ae
:10333c000080fa00000006000200fa0015d0bf0061
:10334c000004e0001c003a0014d0bf000004e000b0
:10335c0009003a000426ef00000c200040308800e1
:10336c00c0002000010020005700070010c0b3006f
:10337c0014f0b700070037000426ef000008200007
:10338c0040308800c0002000010020004e000700e3
:10339c001470ef000040eb00004f78000200370083
:1033ac00100007001e4fe8001e407800ee4f500042
:1033bc00fbff36000900370015d0bf000040e900c4
:1033cc0015f0b7000426ef00000120004030880003
:1033dc00c0002000010020003b0007000080fa0024
:1033ec00000006000000fa000426ef004001200057
:1033fc0040308800c000200001002000320007008f
:10340c0015d0bf000040e80015f0b70015d0bf0084
:10341c00f04f500014003a001570ef0014d0bf00ac
:10342c000004e00009003a000426ef00000c200024
:10343c0040308800c000200001002000220007005e
:10344c0010c0b30014f0b700070037000426ef00db
:10345c000008200040308800c0002000010020003f
:10346c00190007001470ef000080fa00000006003d
:10347c000200fa000040eb00004f78000200370019
:10348c00adff07001e4fe8001e407800ef4f5000c4
:10349c00fbff36000080fa00000006000200fa0074
:1034ac000040eb00004f780002003700cdff070012
:1034bc001e4fe8001e407800ef4f5000fbff360017
:1034cc000080fa00000006000400fa00008fbe0025
:1034dc0005003700000000000081eb008081eb004c
:1034ec001e0f41005e9749001e0078009e00900060
:1034fc00e00f5000e08f5800f6ff3a000080fa0011
:10350c00000006000200fa00004f78001e40780010
:10351c000004e000070032000426ef00f000200059
:10352c0040308800c000200001002000e6ff0700aa
:10353c00060037000426ef00c00020004030880051
:10354c00c000200001002000dfff07000080fa000f
:10355c00000006000600fa001007980021079800ea
:10356c001e0090000000e0000a003a000426ef0064
:10357c000008200040308800c0002000010020001e
:10358c00d1ff07000000eb00100798001570ef004a
:10359c00090037000426ef00000c200040308800a2
:1035ac00c000200001002000c7ff07001000200011
:1035bc00100798001570ef000000eb00000f78006a
:1035cc000200370087ff07001e0fe8002e00900056
:1035dc009e007800808f5000faff39000080fa00be
:1035ec00000006000200fa00000f78001e007800b0
:1035fc00e30f500022003200e30f500005003e00a4
:10360c00e10f500012003200e10f500016003e0096
:10361c0009003700e50f500026003200e50f50007e
:10362c001d003900e60f500029003200e70f500052
:10363c002e003200340037001f0ea900190ea9000d
:10364c00110ea9001b0ea9001d0ea9003500370094
:10365c001f2ea900192ea900112ea9001b2ea9009e
:10366c001d2ea9002f0037001f4ea900194ea900ce
:10367c00114ea9001b4ea9001d4ea90029003700b0
:10368c001f6ea900196ea900116ea9001b6ea9006e
:10369c001d6ea90023003700698ea900618ea80059
:1036ac006b8ea9006d8ea900618ea8006b8ea80090
:1036bc001c00370069aea90061aea8006baea90072
:1036cc006daea90061aea8006baea8001500370066
:1036dc0069cea90061cea8006bcea9006dcea90061
:1036ec0061cea8006bcea8000e00370069eea900d1
:1036fc0061eea8006beea9006deea90061eea800ca
:10370c006beea80007003700e6fe07000101200061
:10371c00600829007dfe0700803e2000bd000700e8
:10372c00000000000080fa00000006000200fa0011
:10373c00000f78001e007800e70f50001c003200cc
:10374c00e70f500007003e00e50f5000100032005c
:10375c00e50f500012003e00e40f5000080032004c
:10376c0023003700ec0f500019003200ed0f500011
:10377c001b003200eb0f5000110032001c00370010
:10378c00107380004c00de00614060001f003700a9
:10379c00107380004d00de00614060001b0037009c
:1037ac00107380004e00de0061406000170037008f
:1037bc00107380004f00de000040780013003700cb
:1037cc001073800000407800614060000f003700eb
:1037dc00107380000000d100614060000b003700c6
:1037ec00107380004900de00614060000700370064
:1037fc00acfe0700010120000009290043fe070070
:10380c00803e2000830007000040eb000080fa009f
:10381c00000006000400fa00000f78002147980011
:10382c001e007800e10f500012003200e10f500032
:10383c0005003900e20f500019003200e30f500070
:10384c00220032002c0037002e40900061406000b6
:10385c000080fb00610060004800dd00a270800069
:10386c00f1ef2f008100610001007000a070880052
:10387c00280037002e409000614060000080fb0063
:10388c00610060004900dd00a2708000f1df2f00b4
:10389c008100610001007000a07088001d003700dd
:1038ac002e409000614060000080fb0061006000d1
:1038bc004a00dd00a2708000f1bf2f008100610082
:1038cc0001007000a0708800120037002e4090009c
:1038dc00614060000080fb00610060004b00dd0077
:1038ec00a2708000f17f2f00810061000100700048
:1038fc00a0708800070037006afe07000101200055
:10390c00e009290001fe0700803e2000410007006d
:10391c00000000000080fa00000006000200fa001f
:10392c00000f7800a1708000f00f2f000080600065
:10393c00a0708800a07080001e007000a07088002d
:10394c000080fa00000006000000fa006f2ea900ab
:10395c00600ea800602ea800612ea8006a0ea800b8
:10396c006a2ea8006b2ea8000080fa00000006004a
:10397c000200fa00881f7800b00020006bff0700df
:10398c000080fb000000ea004f00de00004f7800d2
:10399c0006003700d000200064ff07000004e000a0
:1039ac0002003a000040eb00110037001e84fb00bf
:1039bc00b00020005dff07000080fb00800f54006a
:1039cc00f4ff32001e4078000004a2000084fb00cb
:1039dc00c000200055ff07000080fb00800f540042
:1039ec0002003a0000c0eb000100370010c0b30029
:1039fc004f0478000080fa00000006000000fa0076
:103a0c006f0ea900610ea900690ea9000080fa00d2
:103a1c00000006000200fa00000f78001e0078007b
:103a2c008000eb006011b80004902000d50320004a
:103a3c006033b80005f40700843e20000500200028
:103a4c006033b80098f307000000be008400070044
:103a5c000080fa00000006000e00fa0040079800f3
:103a6c0051079800424f9800ce009000d0cc2c000b
:103a7c000008b8004308de00400798005e00900084
:103a8c008000eb000001be0000482800e10120008e
:103a9c00daf2070020079800310798004e48900092
:103aac00e14f500031003a00130037000000eb00ea
:103abc00000f7800050037002e009000be0090002b
:103acc0067000700650ea9001e0fe8001e017800b4
:103adc005e009000c200de00b04721000008b80074
:103aec000100d100800f5100f3ff39004e0090000f
:103afc000000e900400798004e0090000000e00034
:103b0c00eaff3a001c0037000000eb001007980099
:103b1c000b0037002e009000be00900050000700f4
:103b2c00650ea8002e009000be0090004c0007000f
:103b3c00650ea9001e0090000000e8001007980018
:103b4c001e0190005e009000c200de00b047210014
:103b5c000008b8000100d100800f5100edff3900c2
:103b6c004e0090000000e900400798004e009000c5
:103b7c000000e000e4ff3a000080fa0000000600bc
:103b8c000000fa0005e1a9000421a90004c1a90064
:103b9c0021088000f0fc2f00008060000050a00085
:103bac00200888000021ef0040422f0010088800f8
:103bbc000068a90005e1a8000080fa0000000600da
:020000040000fa
:103bcc001410000004000000800000000c10000025
:103bdc000800000082000000b4001e0000b40000c9
:103bec00b4000000001000000c0000008000000079
:103bfc003a1000001a00000082000000686a6c0095
:103c0c00747a4c000000010000020000040008005f
:103c1c0000100000000020002b2d230030000000bd
:103c2c001810000022000000820000003031320029
:103c3c0033343500363738003941420043444500af
:103c4c004600300031323300343536003738390015
:103c5c006162630064656600000000000000000003
:020000040000fa
:103c6c00f03fb1000180b10006003500ee03090001
:103c7c0000000000403fb1000180b100fbff3d009f
:103c8c001000b000203fb000020035000080090099
:083c9c0000000000000006001a
:020000040000fa
:0200000401f009
:04000800cfff000026
:020000040000fa
:0200000401f009
:04000c00faffff00f8
:020000040000fa
:0200000401f009
:04001000bdffff0031
:020000040000fa
:0200000401f009
:040014007fffff006b
:020000040000fa
:0200000401f009
:04001800ffffff00e7
:020000040000fa
:0200000401f009
:04001c00dfffff0003
:020000040000fa
:0200000401f009
:04002000cfffff000f
:00000001FF
