:020000040000fa
:080000000002040000000000f2
:020000040000fa
:04000800fe020000f4
:020000040000fa
:04000c00fe020000f0
:020000040000fa
:04001000fe020000ec
:020000040000fa
:04001400fe020000e8
:020000040000fa
:04001800fe020000e4
:020000040000fa
:04001c00fe020000e0
:020000040000fa
:04002000fe020000dc
:020000040000fa
:04002400fe020000d8
:020000040000fa
:04002800fe020000d4
:020000040000fa
:04002c00fe020000d0
:020000040000fa
:04003000fe020000cc
:020000040000fa
:04003400fe020000c8
:020000040000fa
:04003800fe020000c4
:020000040000fa
:04003c00fe020000c0
:020000040000fa
:04004000fe020000bc
:020000040000fa
:04004400fe020000b8
:020000040000fa
:04004800fe020000b4
:020000040000fa
:04004c00fe020000b0
:020000040000fa
:04005000fe020000ac
:020000040000fa
:04005400fe020000a8
:020000040000fa
:04005800fe020000a4
:020000040000fa
:04005c00fe020000a0
:020000040000fa
:04006000fe0200009c
:020000040000fa
:04006400fe02000098
:020000040000fa
:04006800fe02000094
:020000040000fa
:04006c00fe02000090
:020000040000fa
:04007000fe0200008c
:020000040000fa
:04007400fe02000088
:020000040000fa
:04007800fe02000084
:020000040000fa
:04007c00fe02000080
:020000040000fa
:04008000fe0200007c
:020000040000fa
:04008400fe02000078
:020000040000fa
:04008800fe02000074
:020000040000fa
:04008c00fe02000070
:020000040000fa
:04009000fe0200006c
:020000040000fa
:04009400fe02000068
:020000040000fa
:04009800fe02000064
:020000040000fa
:04009c00fe02000060
:020000040000fa
:0400a000fe0200005c
:020000040000fa
:0400a400fe02000058
:020000040000fa
:0400a800fe02000054
:020000040000fa
:0400ac00fe02000050
:020000040000fa
:0400b000fe0200004c
:020000040000fa
:0400b400fe02000048
:020000040000fa
:0400b800fe02000044
:020000040000fa
:0400bc00fe02000040
:020000040000fa
:0400c000fe0200003c
:020000040000fa
:0400c400fe02000038
:020000040000fa
:0400c800fe02000034
:020000040000fa
:0400cc00fe02000030
:020000040000fa
:0400d000fe0200002c
:020000040000fa
:0400d400fe02000028
:020000040000fa
:0400d800fe02000024
:020000040000fa
:0400dc00fe02000020
:020000040000fa
:0400e000fe0200001c
:020000040000fa
:0400e400fe02000018
:020000040000fa
:0400e800fe02000014
:020000040000fa
:0400ec00fe02000010
:020000040000fa
:0400f000fe0200000c
:020000040000fa
:0400f400fe02000008
:020000040000fa
:0400f800fe02000004
:020000040000fa
:0400fc00fe02000000
:020000040000fa
:04010000fe020000fb
:020000040000fa
:04010400fe020000f7
:020000040000fa
:04010800fe020000f3
:020000040000fa
:04010c00fe020000ef
:020000040000fa
:04011000fe020000eb
:020000040000fa
:04011400fe020000e7
:020000040000fa
:04011800fe020000e3
:020000040000fa
:04011c00fe020000df
:020000040000fa
:04012000fe020000db
:020000040000fa
:04012400fe020000d7
:020000040000fa
:04012800fe020000d3
:020000040000fa
:04012c00fe020000cf
:020000040000fa
:04013000fe020000cb
:020000040000fa
:04013400fe020000c7
:020000040000fa
:04013800fe020000c3
:020000040000fa
:04013c00fe020000bf
:020000040000fa
:04014000fe020000bb
:020000040000fa
:04014400fe020000b7
:020000040000fa
:04014800fe020000b3
:020000040000fa
:04014c00fe020000af
:020000040000fa
:04015000fe020000ab
:020000040000fa
:04015400fe020000a7
:020000040000fa
:04015800fe020000a3
:020000040000fa
:04015c00fe0200009f
:020000040000fa
:04016000fe0200009b
:020000040000fa
:04016400fe02000097
:020000040000fa
:04016800fe02000093
:020000040000fa
:04016c00fe0200008f
:020000040000fa
:04017000fe0200008b
:020000040000fa
:04017400fe02000087
:020000040000fa
:04017800fe02000083
:020000040000fa
:04017c00fe0200007f
:020000040000fa
:04018000fe0200007b
:020000040000fa
:04018400fe02000077
:020000040000fa
:04018800fe02000073
:020000040000fa
:04018c00fe0200006f
:020000040000fa
:04019000fe0200006b
:020000040000fa
:04019400fe02000067
:020000040000fa
:04019800fe02000063
:020000040000fa
:04019c00fe0200005f
:020000040000fa
:0401a000fe0200005b
:020000040000fa
:0401a400fe02000057
:020000040000fa
:0401a800fe02000053
:020000040000fa
:0401ac00fe0200004f
:020000040000fa
:0401b000fe0200004b
:020000040000fa
:0401b400fe02000047
:020000040000fa
:0401b800fe02000043
:020000040000fa
:0401bc00fe0200003f
:020000040000fa
:0401c000fe0200003b
:020000040000fa
:0401c400fe02000037
:020000040000fa
:0401c800fe02000033
:020000040000fa
:0401cc00fe0200002f
:020000040000fa
:0401d000fe0200002b
:020000040000fa
:0401d400fe02000027
:020000040000fa
:0401d800fe02000023
:020000040000fa
:0401dc00fe0200001f
:020000040000fa
:0401e000fe0200001b
:020000040000fa
:0401e400fe02000017
:020000040000fa
:0401e800fe02000013
:020000040000fa
:0401ec00fe0200000f
:020000040000fa
:0401f000fe0200000b
:020000040000fa
:0401f400fe02000007
:020000040000fa
:0401f800fe02000003
:020000040000fa
:0401fc00fe020000ff
:020000040000fa
:04020000fe020000fa
:020000040000fa
:04020400fe020000f6
:020000040000fa
:04020800fe020000f2
:020000040000fa
:04020c00fe020000ee
:020000040000fa
:04021000fe020000ea
:020000040000fa
:04021400fe020000e6
:020000040000fa
:04021800fe020000e2
:020000040000fa
:04021c00fe020000de
:020000040000fa
:04022000fe020000da
:020000040000fa
:04022400fe020000d6
:020000040000fa
:04022800fe020000d2
:020000040000fa
:04022c00fe020000ce
:020000040000fa
:04023000fe020000ca
:020000040000fa
:04023400fe020000c6
:020000040000fa
:04023800fe020000c2
:020000040000fa
:04023c00fe020000be
:020000040000fa
:04024000fe020000ba
:020000040000fa
:04024400fe020000b6
:020000040000fa
:04024800fe020000b2
:020000040000fa
:04024c00fe020000ae
:020000040000fa
:04025000fe020000aa
:020000040000fa
:04025400fe020000a6
:020000040000fa
:04025800fe020000a2
:020000040000fa
:04025c00fe0200009e
:020000040000fa
:04026000fe0200009a
:020000040000fa
:04026400fe02000096
:020000040000fa
:10040000ef0421000eff27000e018800000000000d
:10041000000020000000e000020032000001200087
:100420002002880014000700760007000000e000aa
:1004300003003a0000ac2100010020000200370058
:100440000000200001002000810f70000100320038
:100450000f000700000020000000e0000200320052
:10046000000002000000000056130200000000001f
:100470000040da000000fe00601220000000e000f2
:1004800002003200002020009001880000000600d9
:10049000a1028800800478000000eb001f003700f4
:1004a000e284440054a0b4009905ba00e2844400f8
:1004b00054a0b4009906ba00e284440054a0b400e9
:1004c0000006eb00476fde00fd07b200ae018800ba
:1004d000636ce10003003a000ad801000000eb0061
:1004e0000e003700606ce10008003a00004deb00a0
:1004f0000a05e800020039003420ec000af0a000f0
:100500008b05e900f9ff3e00040037006168e10057
:10051000010032000086eb000b00070019c7ba008b
:100520000e04e0001905ba0003003a000a00e000da
:10053000dbff3a0000000600fe07b200ae028800b2
:100540008a047800f5ff37000cd0a300e20f4d00bd
:100550001c00390089027800354dba000a05e80010
:10056000020039003420ec000af0a0008b05e900fd
:100570000f003200254dba000a05e80002003900dc
:100580003420ec000af0a0008b05e90008003200de
:100590000c00e0000600320015cdba000a05e800a4
:1005a000020039003420ec000af0a0008b05e900bd
:1005b0008984e80054a0b4000b00e000e2ff3a0098
:1005c000000006009902ba00055d78008b05e9007d
:1005d000f7ff3200c82ade00055d78008b05e900d0
:1005e000f3ff32000c00e000f1ff320019ddba0029
:1005f000eeff3700c2050400000000000040da00f2
:100600000000fe00000005006022b8000602200085
:100610000000d0008180d2000482d2008582d20006
:100620000000a0000202520083825a000300310041
:100630000202420083824a000000a1000603e90092
:10064000f3ff3a0000000600889fbe008a9fbe00ac
:1006500030044200b0844a0030054b0090854b00c6
:100660006000b1000898be000a90be000440e1009e
:1006700005c8e10006d0e10007d8e1000200310022
:10068000680040001008e8004f05be004f04be009f
:1006900000000600889fbe008a9fbe0010047800fc
:1006a0009004900020059000b005900004185400bc
:1006b00005985c0006185d0007985d001100200099
:1006c0000440e10005c8e10006d0e10007d8e100e0
:1006d000010039008000eb00108810004f05be00bb
:1006e0004f04be00000006001200fa00889fbe0002
:1006f0008a9fbe008c9fbe00e0b79f00f1b79f00ad
:1007000082bf9f0093bf9f000605be000404be0089
:100710000000eb00d0b79f00c0b79f00b0b79f00ac
:10072000a0b79f0090b79f000006eb005fb1970055
:10073000cfb09700820141003fb097000200e00077
:1007400004003d00370007007e805700beff070011
:1007500003003700330007007e805700cdff0700fd
:10076000dfb697000d00e0000c0035006fb2970077
:10077000ffb297000fbb97009fbb970010002000af
:10078000010020006011b800000272008182720036
:1007900002037300838373001b0007000c06e8004c
:1007a00001042000810f5600e0ff3a000d00e00038
:1007b00004003d000802be000a03be007e80570010
:1007c000a1ff07005fa897000000e00005003a00c5
:1007d0001fb29700afb297003fb39700cfb3970017
:1007e000090007006fb09700ffb097000fb997009e
:1007f0009fb997004f06be004f05be004f04be00d4
:100800000080fa000000060001000700000006005a
:10081000a4b79f00b5b79f00c6b79f00d7b79f008a
:10082000000006004f09de0082817100b3b79f000f
:100830004f01de008180400082807000a1b79f00e0
:100840008fb097004f09de000000400002007000ea
:1008500090b79f007fa897004f01de008180400085
:100860008280700081b79f000d0007004f3ade00c4
:100870000000400004007000f0af9f000800070077
:100880000402420085824a0006034b0087834b0026
:10089000dfff07000802be000a03be0000000600da
:1008a0002fb29700bfb297004fb39700dfb3970006
:1008b00000000600881f780018002000881f7800bc
:1008c00089ff07008f87e9004f04780000000600c9
:1008d000801feb0084ff07008f87e90000000600ff
:1008e000889fbe008a9fbe00e00f5000e08f580036
:1008f000e00f5900e08f59000c003d006044b80043
:100900006055b8000000540081805c0002015d0069
:1009100083815d00180020001500070008003d00dd
:10092000180007000004eb00050037000004eb008e
:100930000f00070002003d00120007001800200011
:10094000dcff07000800e000060032006022b8006b
:100950006033b8000000520081805a0002015b0041
:1009600083815b004f05be004f04be0000000600ff
:10097000e00f5200e08f5a00e00f5b00e08f5b0059
:10098000000006006044b8006055b800040254003e
:1009900085825c0006035d0087835d000000060021
:1009a000889fbe008a9fbe008c1f7800e00f500019
:1009b000e08f5800e00f5900e08f59000d003d0016
:1009c0006044b8006055b8000000540081805c00ad
:1009d00002015d0083815d001c0020000820e10011
:1009e00009a8e1000ab0e1000bb8e1000d003d00ec
:1009f000080037000006eb00e00f5200e08f5a00bd
:100a0000e00f5b00e08f5b0006003d006044b80033
:100a10006055b8000402540085825c0006035d0046
:100a200087835d00aaff07000c00e000060032008b
:100a30006022b8006033b8000000520081805a0084
:100a400002015b0083815b004f0678004f05be000a
:100a50004f04be0000000600889fbe008a9fbe00b3
:100a60008c1f78000006eb00e00f5000e08f58006c
:100a7000e00f5900e08f590007003d006044b800c6
:100a80006055b8000000540081805c0002015d00e8
:100a900083815d001c002000e00f5200e08f5a00af
:100aa000e00f5b00e08f5b0007003d006044b80092
:100ab0006055b8000402540085825c0006035d00a6
:100ac00087835d000c00a2000c0007000c00e00012
:100ad000060032006022b8006033b8000000520007
:100ae00081805a0002015b0083815b004f06780021
:100af0004f05be004f04be0000000600889fbe00e8
:100b00008a9fbe008c9fbe000404b8000506b80092
:100b10008904460060854e000606b8000a054600b6
:100b2000e0854e000706b8008b054600040eb800ad
:100b3000890446000a854e00e0854d00050eb80088
:100b40000a0546008b854e00060eb8008b05460050
:100b50000416b8000a0546008b854e000516b8003d
:100b60008b054600041eb8008b0546000800be0039
:100b70000a01be004f06be004f05be004f04be0076
:100b800000000600881f7800020478000801780041
:100b9000c4000700080040004f0478000000060071
:100ba0000000fa00881f780000047800ea815700ee
:100bb0003fb9970088007800205c200007000700fc
:100bc0000000e0000200350000044400004ceb008f
:100bd0004f0478000080fa00000006006200fa006e
:100be000889fbe008a1f7800000578008104780085
:100bf000020478008300780080f92f000f00400085
:100c0000770107009a979f00a9979f000000eb00cb
:100c1000b09f9f001885fb008a04fb000a05ea00cc
:100c20004f55de0050022000808f54000d0032002e
:100c3000e10f55000b003a000a01780088007800a7
:100c40002f9097009f91970003000100a0979f00ad
:100c50000000e0008e0032003f9897000000e8009e
:100c6000b09f9f000a04440050022000808f54006f
:100c7000040032000900e000e6ff3a003f989700c8
:100c8000840037000000eb00909f9f00809f9f0032
:100c9000f0979f00e0979f00d0979f00c0979f001c
:100ca00007003700810421000100500000004000cf
:100cb000c1032100808040005f9897001100700000
:100cc000d09f9f0088047800090478003845780098
:100cd0008a00fb0080042100790007000000e0008a
:100ce000f0ff3a00a1c2b300814f55000e003a0058
:100cf000cf8897000180e900c08f9f001000780026
:100d0000c09f9f000000e00005003d000000ea00d9
:100d1000c09f9f005f9897000020a000d09f9f0079
:100d20000904e8000f003700c09f9f000000eb009f
:100d300005003700f2ff2700820f5000020032004a
:100d4000ea00b900008040000904780088047800b7
:100d5000b900fb000103b100e98f5000f5ff360038
:100d6000c09f9f00e0c2b300984f10000200320005
:100d70000080eb0019003700a0c2b300d84f10006c
:100d800007003a00cf8897000180e900c08f9f00dc
:100d900010007800a09f9f000804e80010003700b2
:100da0000000eb00a09f9f0088007800050037003e
:100db000f3ff2700830f500002003200ea00b90061
:100dc0000000410001047800880078003101fb0038
:100dd0000203b100e90f5100f5ff3600a09f9f000c
:100de000984478008900fb0040032100340007008c
:100df0000000e000020032000804e80001003700b3
:100e00008044eb00c97f9f0080c6b30080cf5400b0
:100e100004003a0098cf14000a003a0066405000df
:100e200006003700c0c6b30080cf540005003a006a
:100e300098cf140003003a0065404000c07f9f0037
:100e40000804e8001801fb00e3fb2f008f8141003c
:100e500081f92f008f804000a0f92f000f00400083
:100e6000e10007000000e00009003a00e1fb2f006c
:100e70008f804000a0f92f000f0040001c000700e9
:100e80000000e000020035000804e80061ff3700c0
:100e90000080eb004f0578004f04be000080fa0090
:100ea000000006008001780002003700b159780088
:100eb0000201e9000200e000fcff3a000000060029
:100ec000020037000304e000060032000001780051
:100ed00002007800b041780081cf5100f9ff3a005c
:100ee000010037000001eb0002007800000006005e
:100ef0000400fa00889fbe008a9fbe008c1f780005
:100f00000004780001067800f80d90007800900049
:100f100080855500080890008085550018089000cd
:100f2000808555002808900080855500380890007d
:100f300080855500480890008085550000022200f9
:100f400090bf9f0000032300a0bf9f0008109000e7
:100f50000028a30015003a000b00e0001300340045
:100f60000b0578008a047800e20f55000100360076
:100f700029002000c801900009017800ee80570088
:100f80005800900003000100500498000000e000a9
:100f90008c0032006808900009004000600c980046
:100fa000090555004240a900eeff3c007801900081
:100fb0000200e0000c003400c80190008c007800b2
:100fc0005800900003000100500498008080eb005e
:100fd0000000e0007c003200e808900078009000fb
:100fe00000804000600c9800880c90000900e00030
:100ff0001100340009057800e28f5400010036002a
:101000002a002000c80190000a017800ec805700f7
:101010005800900003000100500498000000e00018
:1010200068003200680890000a004000600c9800d8
:101030008a845400edff3700180990000200e00098
:101040000c003400c8019000e800900058009000a7
:1010500003000100500498008080eb000000e000d5
:1010600059003200e8089000180890000080400005
:10107000600c9800a80c90000900e00011003400fa
:1010800009057800e28f5400010036002a00200094
:10109000c80190000a017800ec80570058009000c9
:1010a00003000100500498000000e00045003200f9
:1010b000680890000a004000600c98008a84540080
:1010c000edff3700380990000200e0000e00340008
:1010d000e80090001808900080804000c80190004f
:1010e0005800900003000100500498008080eb003d
:1010f0000000e00034003200e8089000380890005a
:1011000000804000600c9800c80c90000900e000ce
:101110001100340009057800e28f54000100360008
:101120002a002000c80190000a017800ec805700d6
:101130005800900003000100500498000000e000f7
:1011400020003200680890000a004000600c9800ff
:101150008a845400edff3700081090008000eb00f7
:101160000028a300180032000b00e0001600340035
:101170008b04780009057800e28f540001003600e6
:101180002a002000c80190000a017800ee80570074
:101190005800900003000100500498000000e00097
:1011a00008003200680890000a004000600c9800b7
:1011b0008a8454004240a900eeff3c008000eb000e
:1011c000010037008080eb00010078004f067800b6
:1011d0004f05be004f04be000080fa00000006006c
:1011e0000108780000000600889fbe008a9fbe00ac
:1011f000e4c6b300844f5100ce00320010003c0022
:101200006b425200844f51001800320005003c0030
:1012100054c2b300844f51000601320084c5b300ac
:101220000f00370044c6b300844f51001500320050
:1012300065424200844f510001013a00110037001d
:1012400004c7b300844f5100ed0032005f00350049
:1012500065424200844f51005c003200634242000c
:10126000844f5100f6003a00580037001181e90020
:1012700082087800f0009000818141009249780056
:10128000f500370020629000c5c6b300854f5200bc
:1012900008003a00910278006482520084087800c5
:1012a00094029000140278004fabde0086037800b1
:1012b0001600370015c7b300854f520003003a00ef
:1012c000110478006802540005003700a5c6b30079
:1012d000854f520008003a0091047800688254005b
:1012e000840878009402900024039000b4039000d6
:1012f00014027800050037001182e90084087800a4
:1013000014027800cfa2de00612bb9000498be0061
:101310000690be00a060900088c6b30088cf500041
:101320000d00320028c6b30088cf500004003a00f8
:101330000402fb00cfa2de00612bb90008003700d9
:1013400048c7b30088cf5000030032006644440011
:1013500088cf500004003a00cfa2de00612bb90014
:101360000498be000690be00100278009002900023
:1013700020039000b0039000f0009000e00f5200b6
:10138000e08f5a00e00f5b00e08f5b0003003d0040
:1013900001824100d5c2b3000a003700001290005c
:1013a0000418a3000300320001824100b5c2b3005b
:1013b000040037000408a3005900320001824100f4
:1013c00005c2b300054a7800530037002062900040
:1013d000c5c6b300854f520009003a0011057800d8
:1013e0006402550084087800140478009404900086
:1013f0006055b8000802be000a03be0016003700a0
:1014000015c7b300854f520003003a0091047800dd
:101410006882540005003700a5c6b300854f52000e
:1014200008003a0011057800680255008408780029
:101430009402900024039000b403900014027800fa
:10144000050037001182e900840878001402780052
:101450008002eb006033b8000498be000690be0026
:10146000a060900088c6b30088cf50000d00320005
:1014700028c6b30088cf500004003a000482fb0065
:101480008002eb006033b8000800370048c7b300a3
:1014900088cf5000030032006644440088cf5000db
:1014a00004003a008002eb006033b8000498be00ec
:1014b0000690be00801090000138a3001800320092
:1014c000100278009002900020039000b00390007a
:1014d000e00f5200e08f5a00e00f5b00e08f5b00ee
:1014e0000f00320081c7b300814f5100030032006a
:1014f00081c5b300814f510009003a00f00090000f
:101500000182410005c3b300054a78008100e8006c
:1015100001824100024a78008100e80071009800d1
:10152000f0009000818141006300980082407800c3
:101530003e003700a0619000c4c6b3001181e900ed
:1015400084cf5100220032000a003c006442520065
:1015500084cf51002500320004c2e80084cf51003e
:10156000130032006842520084cf51001e003a003e
:101570000a00370044c7b30084cf51001b0032007b
:101580006642420084cf5100180032006942520086
:1015900084cf510014003a0005003700820878001b
:1015a0009200780040589000804878002c00370066
:1015b0008208780092007800600a9000cfa2de00d6
:1015c000612bb9008498be008690be0024003700cd
:1015d000820878009200780060099000cf91de00c8
:1015e0008288be001e0037001181e9008208780061
:1015f000920078006008900080087800180037009a
:101600001181e9008208780012027800cfa2de0082
:10161000612bb9000498be000690be00f000900057
:10162000818141006300980081c7b300100007006a
:101630000b003700f0009000818141000500370069
:10164000f0009000818141000204e00001003a00b6
:1016500052c2b300824978008100e800710098000e
:101660000000eb004f05be004f04be000000060066
:10167000fc874700889fbe008a9fbe008c9fbe00eb
:101680008e1f78000006780080c5b30080cf500020
:101690000a0032007740400080cf50000a0032003c
:1016a0006940400080cf50000b0032003002210022
:1016b00080bf9f00ae0020000a00370022012100f9
:1016c00082bf9f00060037003302210083bf9f00c6
:1016d0008e002000030037003402210084bf9f00e9
:1016e0000e0120001c0278009c0290002c03900048
:1016f000bc0390000605be000404be0040c6b30053
:1017000080cf5000030032006540400080cf500081
:101710000b003a00e00f5200e08f5a00e00f5b0030
:10172000e08f5b0006003d006000b8006011b8006b
:101730000404500085845800060559008785590027
:10174000e80f57000400320040002000f00f57005f
:101750003c003a000100370030002000e00f540048
:10176000e08f5c00e00f5d00e08f5d0004003a0058
:10177000dc0890008d0120000100e000070032002d
:101780008e00e900888060008fba97008180420057
:1017900091407800f1ef9f007d01200080007800eb
:1017a0008100e900050033008b05d1000a85d300d4
:1017b0008984d3000884d300f9ff3700089ebe0057
:1017c0000a96be00130037008d06e9008e00e9007e
:1017d000848060000fb997008100410011417800ba
:1017e00083fd2f008d81410082f779008001780010
:1017f0008301e900050033008783d1000683d3000d
:101800008582d3000482d300f9ff3700049ebe0016
:101810000696be001c0278009c0290002c039000eb
:10182000bc039000e00f5200e08f5a00e00f5b0015
:10183000e08f5b00930034000d00e000e2ff3c000d
:10184000900037002c60900081c6b300814f50009b
:101850000b00320006003c000004e00008003200eb
:10186000e6c05000814f500052003a00040037009b
:10187000c1c6b300814f50004e003a00230037002c
:101880000800e00004003a005c0890008d01200090
:101890000000e00007003200110009000e84d800ab
:1018a0000fba97000100420010407800f0ef9f004f
:1018b0007d012000110009000e84d8000b003700c4
:1018c000110009000e04d8008d06e9008e81b900d0
:1018d000020454008fb897000884400098417800b3
:1018e00082fd2f000d01410083777900000478000c
:1018f0000800e000020032000d00e000f0ff3c00b4
:10190000cfc4de00614db90027003700e00f54005e
:10191000e08f5c0004003a005c0890008d0120001c
:101920000000e000080032006171b9000800be004c
:101930009b0007000fba970080004200914078009a
:10194000f1ef9f007d0120006171b9000800be0029
:101950002dfb07000c0037006171b9000800be00c4
:10196000800007008d06e90080f1b90002045400f0
:101970008fba9700088442009841780082fd2f00ba
:101980000d014100837779000004be00e00f500094
:10199000e08f5800020032000d00e000eeff3c0036
:1019a0004fcdde008a057800089ebe000a96be0074
:1019b00034003700e00f5400e08f5c00e00f5d0062
:1019c000e08f5d0004003a005c0890008d0120006b
:1019d0000000e0000a0032006172b900612bb9001a
:1019e0000800be000a01be00b9fb07000fba97004d
:1019f0008000420091407800f1ef9f007d012000bf
:101a00006172b900612bb9000800be000a01be0076
:101a1000a8fb07000e0037006172b900612bb90006
:101a20000800be000a01be00adfb07008d06e900fc
:101a300080f2b900040454008fba97000884420071
:101a40009842780084fd2f000d02420085777a00cd
:101a5000009ebe000296be001c0478009c0490000c
:101a60002c059000bc059000e00f5400e08f5c0056
:101a7000e00f5d00e08f5d00020034000d00e0002b
:101a8000e5ff3c00e80f570010003a000c109000f2
:101a90000038a3000d003200f78f560006003e000c
:101aa00080fd2f000d004000ef40780000c3b30020
:101ab00080cf50000500320002c3b30071fd2f003b
:101ac0008d8040008d06e90082f77800788116004d
:101ad000120e98006c00900083fd2f008f81410052
:101ae0008d804100effc07001c089000dc0890008e
:101af000810f500006003d0000805000000e98004d
:101b00000c1090000040a100001698000f00370054
:101b10000100e0000d003d008c109000f48060009a
:101b2000f08f500009003a007c099000fc00900002
:101b3000810051000c09900082805000008050000c
:101b40004240a90001003400000e98004f077800c1
:101b50004f06be004f05be004f04be00cf01b100ce
:101b600000000600839f68000100e00002003d00c5
:101b700060001000e08018000300e00002003d005b
:101b800060011100e08119009ffa07004f00e0009a
:101b900002003b0060001000e0801800000006001a
:0c1ba00099fa07000400be0000000600d7
:020000040000fa
:101bac002d3e0000205300006368000061630000bc
:101bbc0068750000687200002020000000570000cb
:101bcc00656c0000636f00006d6500000053000041
:101bdc006574000020540000696d0000653a000037
:101bec002025000030320000642000006d690000e8
:101bfc006e0000005365000074200000426f00006e
:101c0c006e750000733a000020250000326400005d
:101c1c002073000000430000686100006e67000044
:101c2c00652000005365000074740000696e0000ac
:101c3c0067730000005300006574000020740000fe
:101c4c006f740000616c000020740000696d00006e
:101c5c00650a000000530000657400002074000049
:101c6c00757200006e200000626f00006e7500003f
:101c7c0073000000207500007365000064200000f4
:101c8c00746900006d6500003a000000253000000a
:101c9c00326400003a25000030320000642000005d
:101cac006d6900006e2000002825000064250000ee
:101cbc00252900000020000074750000726e0000e1
:101ccc00733a000000410000564700003a20000023
:101cdc0025640000207300002028000078250000f7
:101cec0064290000004e00006f2000007475000095
:101cfc00726e0000732000006d61000064650000ce
:101d0c00210000002323000020470000616d00002b
:101d1c00652000004f760000657200002023000053
:101d2c0023000000426c0000616300006b20000087
:101d3c00546900006d6500006f750000742100008f
:101d4c000057000068690000746500002054000012
:101d5c00696d0000656f00007574000021000000c3
:101d6c002020000020280000696e00002074000074
:101d7c00696d000065290000202000002000000093
:101d8c00426c0000616300006b00000057680000ab
:101d9c00697400006500000025320000642e00000c
:101dac00426c0000616300006b3a000020250000cb
:101dbc0030320000643a000025300000326400002c
:101dcc0000250000326400002e57000068690000f6
:101ddc00746500003a2000002530000032640000d9
:0c1dec003a2500003032000064000000c6
:020000040000fa
:101df8000400fa0020479800813e200020032000bc
:101e08009e0507002e4090000004e0000e003200fe
:101e18000000eb00000f78000700370011002000d9
:101e28001e0078000008dd00dc0307002003200006
:101e3800700507001e0fe8001e007800e30f500031
:101e4800f6ff34000d00370030002000000f780046
:101e580007003700110020001e0078000008dd0090
:101e6800ce03070020032000620507001e0fe900cb
:101e78001e0078000000e000f6ff3d000080fa0038
:101e8800000006000000fa000101200060dd2800c3
:101e9800220407008000eb00100020003105070035
:101ea8000101200050de28001c04070011c0b30007
:101eb8000000eb007e030700a10f2000803e2000f9
:101ec8006e05070011c0b30010002000780307005a
:101ed800411f2000803e20006805070011c0b300a4
:101ee8002000200072030700813e2000803e200071
:101ef8006205070011c0b300300020006c03070022
:101f08000040eb00baff07000080fa00000006005e
:101f18001000fa00230037006604070041808000a3
:101f2800908828000008b8004508de00801f780067
:101f3800d0de2800801f78000e00780016fb07000e
:101f4800e4875700010120000e007800f303070022
:101f5800a90307008000fb00c00320008088b900a7
:101f68008000780040808000008040004080880029
:101f780041808000b0032000808f500003003e00a5
:101f8800c0032000408088000600370041808000a0
:101f980080512100808f50000200360080512100be
:101fa80040808800d00020000d0307000004e000f6
:101fb800d9ff3a000080fa00000006001000fa007d
:101fc8001b0037003b04070000808000801f78005a
:101fd80000e02800801f78000e007800eefa070065
:101fe800e4875700010120000e007800cb030700aa
:101ff800810307008000fb00008080000080400013
:1020080000808800008080000000e00002003d00a1
:102018000030ef000600370001808000c003200078
:10202800808f500002003400c00320000080880028
:10203800d0002000ea0207000004e000e1ff3a00b7
:102048000080fa00000006000200fa0019040700e8
:102058000101200010e12800b0030700813e2000a4
:10206800803e20000505070000c0eb0010479800df
:102078001e0037001e4090000004e00019003200e6
:102088001e4090000080fb004700de00004f7800f3
:10209800080407001e4078000004e0000200320037
:1020a800e0c3b3000100370000c2b300b403070067
:1020b8000101200010e22800980307001e40780064
:1020c8000004e0000200320000c2b3000100370043
:1020d800e0c3b300aa0307000101200010e32800b1
:1020e8008e0307004403070010479800d000200023
:1020f800bb0207000004e000deff3a00813e20003a
:10210800803e2000dd0407001e4078000004e00047
:10211800020032007eff070001003700a7ff07001a
:10212800017d2000803e2000d40407000080fa00d2
:10213800000006001600fa00100f9800210f980002
:10214800dc030700510020001e08900073030700fd
:10215800b100200000e428007003070041808000df
:102168002e089000008f50008000eb001000200027
:102178007c0407009e007800400620008088b90093
:10218800800078004080800000017800110009007c
:102198008280d800000278001e017800908828000c
:1021a8000010b8004508de00c10320008180b90096
:1021b800000051001e017800918828000111b80024
:1021c8004519de008e80e800841f7800801f7800a3
:1021d800821f7800c0e42800801f78000100780082
:1021e8006dfa0700e88757000e80e800010120001b
:1021f8004a0307000080fa00000006001800fa00f1
:10220800100f9800210f9800320f9800a9030700bb
:10221800510020001e08900040030700b100200074
:1022280010e628003d030700418080002e0890003a
:10223800008f50008000eb001000200049040700c8
:102248003e0890000000e000120032009e00780076
:102258003e08900000017800110009008280d80033
:10226800000f78000e80e800be089000811f7800fb
:102278009e1f780091e62800811f780046fa070023
:10228800e68757000e80e8000101200023030700bd
:1022980003003700e100200090e728001f03070033
:1022a8000080fa00000006000000fa008103070021
:1022b800f100200080e82800180307008000eb00e8
:1022c8001000200027040700608080000000e00064
:1022d80004003a00e100200080e928000f0307000d
:1022e8000a003700508080000000e00004003a0037
:1022f800e100200070ea2800080307000300370007
:10230800e100200060eb2800040307000080fa00c9
:10231800000006000200fa00e3ff07000100370092
:1023280000000000400020002d0207000004e0002b
:10233800fbff3a000040eb00004f78002f00370009
:1023480040002000260207000004e0002b003a00ad
:102358001e80fb00e10f50000f003200e10f50001b
:1023680003003c000000e000060032001d003700ba
:10237800e20f50000d003200e30f5000120032004f
:1023880018003700608080008000780060ec28002a
:1023980068ff070013003700508080008000780035
:1023a800c0ec280063ff07000e0037002180800082
:1023b80060808000010178008000780060ec2800cf
:1023c8008eff0700070037001180800050808000d2
:1023d8000101780080007800c0ec280087ff070022
:1023e800000000001e4fe8009e40780063cf6000a8
:1023f800813e2000401f20002004070050002000dc
:10240800f70107000004e000cdff3a004106200074
:10241800803e2000190407000080fa000000060032
:102428000000fa000770ef000670ef00408080009f
:102438006080880040808000508088000430ef0071
:102448000230ef000080fa00000006001000fa00d9
:102458001803070062808000908828000010b800e8
:102468004508de00c10320008180b900000051004a
:1024780062808000918828000111b8004519de00ab
:1024880021808000801f7800821f7800811f7800db
:1024980020ed2800801f78000e007800bef90700a4
:1024a800e88757008000eb000000eb00ad03070051
:1024b800010120000e007800980207005280800079
:1024c800908828000010b8004508de00c1032000ed
:1024d8008180b90000005100528080009188280056
:1024e8000111b8004519de0011808000801f7800b6
:1024f800821f7800811f780070ee2800801f780006
:102508000e007800a4f90700e88757008000eb0068
:102518001000200093030700010120000e0078003e
:102528007e0207000080fa00000006000000fa00a2
:102538002a00370060002000a90107000004e0001d
:1025480011003a0006d0bf000004a2000004e00019
:102558000d003200108080000000e8001080880024
:1025680051808000008080000080400050808800fa
:1025780010c0b30006f0b7000770ef00b3ff070004
:102588000040eb001afe07007000200094010700cd
:102598000004e00011003a0007d0bf000004a200c8
:1025a8000004e0000d003200208080000000e800f8
:1025b80020808800618080000080800000804000ca
:1025c800608088000670ef0010c0b30007f0b70005
:1025d8009eff070010c0b30005fe07000040800002
:1025e800680060000000e000d2ff32000040800078
:1025f800680060000000e000270032000068a900c1
:102608000021ef0040422f00100888000060fe0003
:10261800d0002000720107000004e00002003a0028
:1026280089fe07007eff070006d0bf000004e00017
:1026380004003200508080000000e90050808800cb
:102648000900370007d0bf000004e0000400320092
:10265800608080000000e900608088000200370088
:1026680060002000cd010700608080000000e000cd
:1026780007003200508080000000e00004003200b3
:1026880050002000560107000004e00002003a0054
:1026980020ff070062ff07006cff07000000000032
:1026a800ceff37000400fa00000f780011079800e9
:1026b8008040eb000000eb001e0007008040eb00ac
:1026c800100020001b0007008040eb0020002000c5
:1026d800180007008040eb003000200015000700bc
:1026e80021c0b300400020001200070021c0b30041
:1026f800500020000f00070021c0b3006000200038
:102708000c00070021c0b30070002000090007007a
:10271800af01070088030700da010700df0107009f
:10272800ca03070081ff07000000eb000080fa00e1
:10273800000006000400fa00000f78002147980006
:102748001e007800e30f500073003200e30f5000c2
:1027580005003e00e10f50002d003200e10f50004f
:102768004c003e0009003700e50f5000ab00320076
:10277800e50f500089003900e60f5000c70032000d
:10278800e70f5000e5003200130137001f0ea900c3
:10279800190ea9002e409000e14f500003003200ae
:1027a8002e4090000004e0000d003a002e409000fa
:1027b800614060000080fb00610060004800dd00af
:1027c80082708000f1ef2f0081006100010070002d
:1027d800807088001b0ea9001d0ea900fe0037009e
:1027e8002e409000e24f500003003a00110ea8005e
:1027f8001b0ea800f80037002e409000e34f500051
:10280800e6003a00110ea8001d0ea800f2003700dd
:102818001f2ea900192ea9002e409000e14f50004c
:10282800030032002e4090000004e0000d003a0042
:102838002e409000614060000080fb006100600055
:102848004900dd0082708000f1df2f008100610007
:1028580001007000807088001b2ea9001d2ea900a1
:10286800dd0037002e409000e24f500003003a0090
:10287800112ea8001b2ea800d70037002e4090006c
:10288800e34f5000c7003a00112ea8001d2ea800e3
:10289800d10037001f4ea900194ea9002e40900004
:1028a800e14f5000030032002e4090000004e00089
:1028b8000d003a002e409000614060000080fb004f
:1028c800610060004a00dd0082708000f1bf2f00c7
:1028d8008100610001007000807088001b4ea90013
:1028e8001d4ea900bc0037002e409000e24f50005a
:1028f80003003a00114ea8001b4ea800b60037008e
:102908002e409000e34f5000a8003a00114ea80056
:102918001d4ea800b00037001f6ea900196ea9004f
:102928002e409000e14f5000030032002e409000ee
:102938000004e0000d003a002e4090006140600065
:102948000080fb00610060004b00dd0082708000a9
:10295800f17f2f0081006100010070008070880005
:102968001b6ea9001d6ea9009b0037002e40900029
:10297800e24f500003003a00116ea8001b6ea80039
:10298800950037002e409000e34f500089003a0030
:10299800116ea8001d6ea8008f003700698ea9006f
:1029a8002e409000e14f5000030032002e4090006e
:1029b8000004e0000d003a002e40900061406000e5
:1029c8000080fb00610060004c00dd0002738000a5
:1029d800f1ff2e0081006100010070000073880083
:1029e8006b8ea9006d8ea9007b0037002e409000e9
:1029f800e24f500003003a00618ea8006b8ea800d9
:102a0800750037002e409000e34f50006b003a00ed
:102a1800618ea8006d8ea8006f00370069aea9000e
:102a28002e409000e14f5000030032002e409000ed
:102a38000004e0000d003a002e4090006140600064
:102a48000080fb00610060004d00dd000273800023
:102a5800f1ff2d0081006100010070000073880003
:102a68006baea9006daea9005b0037002e40900048
:102a7800e24f500003003a0061aea8006baea80018
:102a8800550037002e409000e34f50004d003a00ab
:102a980061aea8006daea8004f00370069cea9004e
:102aa8002e409000e14f5000030032002e4090006d
:102ab8000004e0000d003a002e40900061406000e4
:102ac8000080fb00610060004e00dd0002738000a2
:102ad800f1ff2b0081006100010070000073880085
:102ae8006bcea9006dcea9003b0037002e409000a8
:102af800e24f500003003a0061cea8006bcea80058
:102b0800350037002e409000e34f50002f003a0068
:102b180061cea8006dcea8002f00370069eea9008d
:102b28002e409000e14f5000030032002e409000ec
:102b38000004e0000d003a002e4090006140600063
:102b48000080fb004f00dd0002738000f1ff2700ca
:102b58008100610001007000007388006beea9001d
:102b68006deea900000000001b0037002e40900009
:102b7800e24f500003003a0061eea8006beea80097
:102b8800150037002e409000e34f500011003a0026
:102b980061eea8006deea8000f00370000000000ed
:102ba8000d003700000000000b0037000000000097
:102bb800090037000000000007003700000000008f
:102bc8000500370000000000030037000000000087
:102bd80001003700000000000080fa000000060035
:102be8000200fa00000f78001e007800e70f50007e
:102bf8001c003200e70f500007003e00e50f5000b0
:102c080010003200e50f500012003e00e40f5000a3
:102c18000800320023003700ec0f50001900320082
:102c2800ed0f50001b003200eb0f50001100320076
:102c38001c003700107380004c00de00614060000b
:102c480019003700107380004d00de0061406000fd
:102c580015003700107380004e00de0061406000f0
:102c680011003700107380004f00de00004078002c
:102c78000d0037001073800000407800614060004c
:102c880009003700107380000000d1006140600027
:102c980005003700107380004900de0061406000c5
:102ca800010037000040eb000080fa000000060039
:102cb8000400fa00000f7800214798001e007800f1
:102cc800e10f500012003200e10f500005003900fa
:102cd800e20f500019003200e30f500022003200ca
:102ce8002c0037002e409000614060000080fb00ff
:102cf800610060004800dd00a2708000f1ef2f0045
:102d08008100610001007000a07088002100370078
:102d18002e409000614060000080fb006100600070
:102d28004900dd00a2708000f1df2f008100610002
:102d380001007000a0708800160037002e40900037
:102d4800614060000080fb00610060004a00dd0017
:102d5800a2708000f1bf2f008100610001007000a7
:102d6800a07088000b0037002e4090006140600082
:102d78000080fb00610060004b00dd00a270800055
:102d8800f17f2f008100610001007000a0708800b1
:102d9800000000000080fa00000006000200fa00af
:102da800000f7800a1708000f00f2f0000806000f5
:102db800a07088001e007800c800dd00a0708000a8
:102dc80001007000a07088000080fa000000060072
:102dd8000000fa006f2ea900600ea800602ea8005f
:102de800612ea8006a0ea8006a2ea8006b2ea80003
:102df8000080fa00000006000200fa00881f780030
:102e0800b000200076ff07000080fb000000ea0009
:102e18004f00de00004f780006003700d000200089
:102e28006fff07000004e00002003a000040eb00da
:102e3800110037001e84fb00b000200068ff070067
:102e48000080fb00800f5400f4ff32001e40780021
:102e58000004a2000084fb00c000200060ff0700ff
:102e68000080fb00800f540002003a0000c0eb0015
:102e78000100370010c0b3004f0478000080fa004a
:102e8800000006000000fa006f0ea900610ea900fc
:102e9800690ea9000080fa00000006000000fa0090
:102ea800f03f2000103088003038280000308800bb
:102eb8001000200060308800907f2400010020006e
:102ec800050107000426ef00800320004030880039
:102ed800c000200001002000ff0007000426ef00ca
:102ee800c000200040308800c00020000100200001
:102ef800f90007000426ef00600020004030880039
:102f0800c000200001002000f3000700690007004e
:102f180010c0b3000080fa00000006000600fa00a6
:102f280010079800210798000000eb00000f7800b8
:102f38000b0037001e0090001e0040001040780073
:102f48000000fb000000e0000a0032001e009000b4
:102f58001e00400010407800090007001e0fe8001e
:102f68002e0090009e007800808f5000f1ff3900fd
:102f780001003700000000000080fa000000060091
:102f88000200fa00004f78001e00fb00ea0f500014
:102f98000e003200ea0f500003003c00e80f50001a
:102fa800150032001b003700ec0f500017003200ec
:102fb800ed0f500017003a0010d0bf00ea4f500044
:102fc800360032004c0007003500370010d0bf0033
:102fd800ed4f500001003200470007000ed0bf003f
:102fe8000004e00002003a00b00007002c0037009f
:102ff800a30007002a0037005300070000c2b300ef
:10300800dfff0700500007002500370029000700f0
:10301800230037000fd0bf00f04f500014003a00d3
:103028000f70ef000ed0bf000004e00009003a0066
:103038000426ef00000c200040308800c00020006b
:1030480001002000a400070010c0b3000ef0b70074
:10305800070037000426ef000008200040308800f1
:10306800c0002000010020009b0007000e70ef0048
:1030780010002000203088001e00fb00403088002f
:10308800c000200001002000930007000fd0bf00ff
:103098000040e8000ff0b700010037000000000012
:1030a8001e41780001012100824878000080fa0062
:1030b800000006000000fa000426ef0010002000bf
:1030c80040308800701f20000100200082000700a7
:1030d8000426ef002000200040308800701f2000e8
:1030e800010020007c0007000e70ef000f70ef0059
:1030f8000080fa00000006000000fa000ed0bf00b1
:103108000004e00007003a000426ef000008200051
:1031180040308800c0002000010020006e00070039
:10312800060037000426ef00000c2000403088001d
:10313800c000200001002000670007000f70ef00aa
:103148000080fa00000006000200fa000fd0bf005d
:103158000004e0001c003a000ed0bf000004e000ac
:1031680009003a000426ef00000c200040308800d7
:10317800c0002000010020005700070010c0b30065
:103188000ef0b700070037000426ef000008200003
:1031980040308800c0002000010020004e000700d9
:1031a8000e70ef000040eb00004f7800020037007f
:1031b800100007001e4fe8001e407800ee4f500038
:1031c800fbff3600090037000fd0bf000040e900c0
:1031d8000ff0b7000426ef000001200040308800ff
:1031e800c0002000010020003b0007000080fa001a
:1031f800000006000000fa000426ef00400120004d
:1032080040308800c0002000010020003200070084
:103218000fd0bf000040e8000ff0b7000fd0bf008c
:10322800f04f500014003a000f70ef000ed0bf00ae
:103238000004e00009003a000426ef00000c20001a
:1032480040308800c0002000010020002200070054
:1032580010c0b3000ef0b700070037000426ef00d7
:103268000008200040308800c00020000100200035
:10327800190007000e70ef000080fa000000060039
:103288000200fa000040eb00004f7800020037000f
:10329800adff07001e4fe8001e407800ef4f5000ba
:1032a800fbff36000080fa00000006000200fa006a
:1032b8000040eb00004f780002003700cdff070008
:1032c8001e4fe8001e407800ef4f5000fbff36000d
:1032d8000080fa00000006000400fa00008fbe001b
:1032e80005003700000000000081eb008081eb0042
:1032f8001e0f41005e9749001e0078009e00900056
:10330800e00f5000e08f5800f6ff3a000080fa0006
:10331800000006000200fa00004f78001e40780006
:103328000004e000070032000426ef00f00020004f
:1033380040308800c000200001002000e6ff0700a0
:10334800060037000426ef00c00020004030880047
:10335800c000200001002000dfff07000080fa0005
:10336800000006000600fa001007980021079800e0
:103378001e0090000000e0000a003a000426ef005a
:103388000008200040308800c00020000100200014
:10339800d1ff07000000eb00100798000f70ef0046
:1033a800090037000426ef00000c20004030880098
:1033b800c000200001002000c7ff07001000200007
:1033c800100798000f70ef000000eb00000f780066
:1033d8000200370087ff07001e0fe8002e0090004c
:1033e8009e007800808f5000faff39000080fa00b4
:1033f800000006000200fa00000f78001e007800a6
:103408008000eb006011b80004902000d503200074
:103418006033b8008ef50700843e200005002000c8
:103428006033b80021f507000000be0079000700ee
:103438000080fa00000006000200fa00000f780081
:103448001e0078008000eb006011b8000490200096
:10345800d50320006033b8007df50700042424005c
:10346800f50020006033b80010f507000000be002a
:10347800680007000080fa00000006000c00fa004f
:103488004007980051079800ce009000d0cc2c003f
:103498000008b8004308de00400798005e0090006e
:1034a800c200de00b04721000008b8000100d100ca
:1034b800100798005e0090008000eb000001be003d
:1034c80000482800e10120004df40700200798007b
:1034d80031079800130037000000eb00000f780058
:1034e800090037002e009000be0090004900070038
:1034f800650ea8002e009000be0090004500070051
:10350800650ea9001e0fe8009e0078001e009000be
:10351800808f5000f3ff39004e0090000000e90052
:10352800400798004e0090000000e000eaff3a00d3
:103538000080fa00000006000000fa0005e1a9007a
:103548000421a90004c1a90021088000f0fc2f0073
:10355800008060000050a000200888000021ef00d3
:1035680040422f00100888000068a90005e1a80063
:083578000080fa0000000600cb
:020000040000fa
:103580000e10000004000000800000000810000081
:103590000600000082000000b400b40000b4000087
:1035a000001000000800000080000000341000003f
:1035b0001a00000082000000686a6c00747a4c00f7
:1035c00000000100000200000400080000100000dc
:1035d000000020002b2d23003000000012100000fe
:1035e0002200000082000000303132003334350008
:1035f0003637380039414200434445004600300028
:1036000031323300343536003738390061626300b7
:0c3610006465660000000000000000007f
:020000040000fa
:10361c00f03fb1000180b10006003500ee03090057
:10362c0000000000403fb1000180b100fbff3d00f5
:10363c001000b000203fb0000200350000800900ef
:08364c00000000000000060070
:020000040000fa
:103654000000fa0071492000401f200088ff070085
:1036640061122000401f200085ff070071492000df
:10367400401f200082ff07000080fa0000000600bf
:020000040000fa
:0200000401f009
:04000800cfff000026
:020000040000fa
:0200000401f009
:04000c00faffff00f8
:020000040000fa
:0200000401f009
:04001000bdffff0031
:020000040000fa
:0200000401f009
:040014007fffff006b
:020000040000fa
:0200000401f009
:04001800ffffff00e7
:020000040000fa
:0200000401f009
:04001c00dfffff0003
:020000040000fa
:0200000401f009
:04002000cfffff000f
:00000001FF
