:020000040000fa
:080000000002040000000000f2
:020000040000fa
:04000800fa020000f8
:020000040000fa
:04000c00fe020000f0
:020000040000fa
:0400100044030000a5
:020000040000fa
:0400140002030000e3
:020000040000fa
:0400180006030000db
:020000040000fa
:04001c000a030000d3
:020000040000fa
:040020004403000095
:020000040000fa
:040024004403000091
:020000040000fa
:04002800440300008d
:020000040000fa
:04002c004403000089
:020000040000fa
:040030004403000085
:020000040000fa
:040034000e030000b7
:020000040000fa
:04003800440300007d
:020000040000fa
:04003c004403000079
:020000040000fa
:040040004403000075
:020000040000fa
:040044004403000071
:020000040000fa
:04004800440300006d
:020000040000fa
:04004c004403000069
:020000040000fa
:040050004403000065
:020000040000fa
:040054004403000061
:020000040000fa
:04005800440300005d
:020000040000fa
:04005c004403000059
:020000040000fa
:040060004403000055
:020000040000fa
:040064004403000051
:020000040000fa
:04006800440300004d
:020000040000fa
:04006c004403000049
:020000040000fa
:040070004403000045
:020000040000fa
:040074004403000041
:020000040000fa
:04007800440300003d
:020000040000fa
:04007c004403000039
:020000040000fa
:040080004403000035
:020000040000fa
:040084004403000031
:020000040000fa
:04008800440300002d
:020000040000fa
:04008c004403000029
:020000040000fa
:040090004403000025
:020000040000fa
:040094004403000021
:020000040000fa
:04009800440300001d
:020000040000fa
:04009c004403000019
:020000040000fa
:0400a0004403000015
:020000040000fa
:0400a4004403000011
:020000040000fa
:0400a800440300000d
:020000040000fa
:0400ac004403000009
:020000040000fa
:0400b0004403000005
:020000040000fa
:0400b4004403000001
:020000040000fa
:0400b80044030000fd
:020000040000fa
:0400bc0044030000f9
:020000040000fa
:0400c00044030000f5
:020000040000fa
:0400c40044030000f1
:020000040000fa
:0400c80044030000ed
:020000040000fa
:0400cc0044030000e9
:020000040000fa
:0400d00044030000e5
:020000040000fa
:0400d40044030000e1
:020000040000fa
:0400d80044030000dd
:020000040000fa
:0400dc0044030000d9
:020000040000fa
:0400e00044030000d5
:020000040000fa
:0400e40044030000d1
:020000040000fa
:0400e80044030000cd
:020000040000fa
:0400ec0044030000c9
:020000040000fa
:0400f00044030000c5
:020000040000fa
:0400f40044030000c1
:020000040000fa
:0400f80044030000bd
:020000040000fa
:0400fc0044030000b9
:020000040000fa
:0401000044030000b4
:020000040000fa
:0401040044030000b0
:020000040000fa
:0401080044030000ac
:020000040000fa
:04010c0044030000a8
:020000040000fa
:0401100044030000a4
:020000040000fa
:0401140044030000a0
:020000040000fa
:04011800440300009c
:020000040000fa
:04011c004403000098
:020000040000fa
:040120004403000094
:020000040000fa
:040124004403000090
:020000040000fa
:04012800440300008c
:020000040000fa
:04012c004403000088
:020000040000fa
:040130004403000084
:020000040000fa
:040134004403000080
:020000040000fa
:04013800440300007c
:020000040000fa
:04013c004403000078
:020000040000fa
:040140004403000074
:020000040000fa
:040144004403000070
:020000040000fa
:04014800440300006c
:020000040000fa
:04014c004403000068
:020000040000fa
:040150004403000064
:020000040000fa
:040154004403000060
:020000040000fa
:04015800440300005c
:020000040000fa
:04015c004403000058
:020000040000fa
:040160004403000054
:020000040000fa
:040164004403000050
:020000040000fa
:04016800440300004c
:020000040000fa
:04016c004403000048
:020000040000fa
:040170004403000044
:020000040000fa
:040174004403000040
:020000040000fa
:04017800440300003c
:020000040000fa
:04017c004403000038
:020000040000fa
:040180004403000034
:020000040000fa
:040184004403000030
:020000040000fa
:04018800440300002c
:020000040000fa
:04018c004403000028
:020000040000fa
:040190004403000024
:020000040000fa
:040194004403000020
:020000040000fa
:04019800440300001c
:020000040000fa
:04019c004403000018
:020000040000fa
:0401a0004403000014
:020000040000fa
:0401a4004403000010
:020000040000fa
:0401a800440300000c
:020000040000fa
:0401ac004403000008
:020000040000fa
:0401b0004403000004
:020000040000fa
:0401b4004403000000
:020000040000fa
:0401b80044030000fc
:020000040000fa
:0401bc0044030000f8
:020000040000fa
:0401c00044030000f4
:020000040000fa
:0401c40044030000f0
:020000040000fa
:0401c80044030000ec
:020000040000fa
:0401cc0044030000e8
:020000040000fa
:0401d00044030000e4
:020000040000fa
:0401d40044030000e0
:020000040000fa
:0401d80044030000dc
:020000040000fa
:0401dc0044030000d8
:020000040000fa
:0401e00044030000d4
:020000040000fa
:0401e40044030000d0
:020000040000fa
:0401e80044030000cc
:020000040000fa
:0401ec0044030000c8
:020000040000fa
:0401f00044030000c4
:020000040000fa
:0401f40044030000c0
:020000040000fa
:0401f80044030000bc
:020000040000fa
:0401fc0044030000b8
:020000040000fa
:0402000044030000b3
:020000040000fa
:0402040044030000af
:020000040000fa
:0402080044030000ab
:020000040000fa
:04020c0044030000a7
:020000040000fa
:0402100044030000a3
:020000040000fa
:04021400440300009f
:020000040000fa
:04021800440300009b
:020000040000fa
:04021c004403000097
:020000040000fa
:040220004403000093
:020000040000fa
:04022400440300008f
:020000040000fa
:04022800440300008b
:020000040000fa
:04022c004403000087
:020000040000fa
:040230004403000083
:020000040000fa
:04023400440300007f
:020000040000fa
:04023800440300007b
:020000040000fa
:04023c004403000077
:020000040000fa
:040240004403000073
:020000040000fa
:04024400440300006f
:020000040000fa
:04024800440300006b
:020000040000fa
:04024c004403000067
:020000040000fa
:040250004403000063
:020000040000fa
:04025400440300005f
:020000040000fa
:04025800440300005b
:020000040000fa
:04025c004403000057
:020000040000fa
:040260004403000053
:020000040000fa
:04026400440300004f
:020000040000fa
:100400008f0021000eff27000e0188000000000071
:10041000000020000000e000020032000001200087
:100420002002880014000700990007000000e00087
:1004300003003a00405f2000010020000200370066
:100440000000200001002000810f70000100320038
:100450000f000700000020000000e0000200320052
:100460000000020000000000c203020000000000c3
:100470000040da000000fe00000320000000e00061
:1004800002003200002020009001880000000600d9
:10049000a1028800800478000000eb001f003700f4
:1004a000e284440054a0b4009905ba00e2844400f8
:1004b00054a0b4009906ba00e284440054a0b400e9
:1004c0000006eb00476fde00fd07b200ae018800ba
:1004d000636ce10003003a000ad801000000eb0061
:1004e0000e003700606ce10008003a00004deb00a0
:1004f0000a05e800020039003420ec000af0a000f0
:100500008b05e900f9ff3e00040037006168e10057
:10051000010032000086eb000b00070019c7ba008b
:100520000e04e0001905ba0003003a000a00e000da
:10053000dbff3a0000000600fe07b200ae028800b2
:100540008a047800f5ff37000cd0a300e20f4d00bd
:100550001c00390089027800354dba000a05e80010
:10056000020039003420ec000af0a0008b05e900fd
:100570000f003200254dba000a05e80002003900dc
:100580003420ec000af0a0008b05e90008003200de
:100590000c00e0000600320015cdba000a05e800a4
:1005a000020039003420ec000af0a0008b05e900bd
:1005b0008984e80054a0b4000b00e000e2ff3a0098
:1005c000000006009902ba00055d78008b05e9007d
:1005d000f7ff3200c82ade00055d78008b05e900d0
:1005e000f3ff32000c00e000f1ff320019ddba0029
:1005f000eeff3700c028a900ffff3700c068a90040
:10060000ffff3700c048a900ffff3700c088a900de
:10061000ffff3700c0a8a900ffff3700801f780048
:100620000150e200020032000170ed000e003700c0
:10063000b0c3b30001f0b7000650e2000200320080
:100640000670ed0008003700b0c3b30006f0b70035
:100650000050e200020032000070ed00020037009e
:1006600070c1b30000f0b70010c0b30002f0b700d3
:10067000907180000000a200a07188000068a900ad
:100680004f007800004006000040da000000fe0045
:040690000000050061
:020000040000fa
:10069400203a000020000000486500006c6c000057
:1006a4006f000000537400006172000074200000a9
:1006b400476100006d6500003f200000004300001a
:1006c4004845000053530000434c00004f430000d2
:1006d4004b00000030300000203a000020300000c1
:1006e400352000003a2000003030000020000000d7
:020000040000fa
:1006f400881f780000d0bf002001070000ccb300a1
:100704006b00070004d0bf000043b000af00070037
:1007140005d0bf000043b000ac000700a834280097
:1007240031c0b30008007800ba00070006d0bf004b
:100734001201070004d0bf000043b000a30007006b
:1007440005d0bf000043b000a000070031c0b300d3
:1007540008007800af00070001d0bf0007010700c0
:1007640004d0bf000043b0009800070005d0bf00cc
:100774000043b000950007004f0478000000060015
:10078400881f780000d0bf0006d0bf000170ef00c2
:10079400a0032000303a8800f0f32f004427b6006d
:1007a40000fe2f004427b6004827ef0040a7a90009
:1007b40010002000a20920008107200033742000cb
:1007c400814978008249780080497800113a800094
:1007d4007205200061042000237420008149780000
:1007e4008249780080497800010027000000210038
:1007f400133a800003816000800f5100fcff3a002f
:1008040000022000123a800082006000fdff3200e6
:100814000270ef00302ea9003400070010c0b300ae
:100824002300070010002000cb00070051c0b300d4
:10083400e03428007700070000ccb3001c00070058
:10084400c1c0b3004035280072000700100020002a
:10085400b00007000004e00012003200a1c0b300a1
:10086400103628006b00070000ccb300100007000e
:10087400d1c0b300c036280066000700803e2000c7
:100884006f000700ca0007000044eb000250e200ba
:10089400feff320096ff07002300210088497800fc
:1008a400faff37000000eb004f0478000000060058
:1008b40001f02f0042e42000128960000000fb00d8
:1008c400442eb70034aea90015eea900348ea8005a
:1008d400000000000000000000000000348ea900a9
:1008e400500020005600070000000600889fbe004c
:1008f400f00020005200070009f02f0040e420001f
:100904001088640034aea90015eea900348ea90045
:1009140000e420001088640030aea90011eea900a4
:10092400308ea90040e42000108864008803200071
:1009340008007800442eb700348ea80000000000a0
:100944000000000000000000348ea90050002000c8
:100954003b00070040e42000108864000800780091
:10096400442eb700348ea8000000000000000000f0
:1009740000000000348ea900800c20003d00070018
:1009840040e420001088640008007800442eb7007a
:10099400348ea800000000000000000000000000e9
:1009a400348ea900800c2000320007000840780033
:1009b400bfff0700c0c0b300bdff070060c0b300a5
:1009c400bbff07004f04be000000060034aea900c0
:1009d40015eea80001f02f0042e420001289600007
:1009e4000000fb00442eb700348ea8000000000075
:1009f4000000000000000000348ea90015eea900dc
:100a0400800c20001b000700800c20001900070048
:100a140000000600889fbe0080047800014478002e
:100a24000804e0000400320039407800e7ff0700c2
:100a34000844e900fcff3a004f04be000000060031
:100a440001fa200000000000000000000000000087
:100a54000000000000000000000000000000000092
:100a64008100e900f7ff3a000000e900f4ff3a00d2
:100a7400000006000000000000000000000000006c
:100a84000000000000000000000000000000000062
:100a94000000000000000000000000000000000052
:100aa4000000000000000000000000000000000042
:100ab4000000000000000000000000000000000032
:100ac4000000000000000000000000000000000022
:100ad4000000000000000000000000000000000012
:100ae4000000000000000000000000000000000002
:100af40000000000000000000000000000000000f2
:100b040000000000000000000000e900d9ff3a00e6
:100b140000000600e10f500003003200e20f500015
:100b24000b003a000500370000002100620eb600f9
:100b34000000e9004f00de0006003700000022003c
:100b4400620eb6000000e9004f00de00010037002d
:100b54000040eb0000000600e10f500003003200eb
:100b6400e20f500004003a0002003700618ea80032
:100b74000100370061aea800000006008040780044
:100b84000470ef000570ef00e9cf5000040034005a
:100b9400eac050000470ec00e9cf5000fcff3c00b8
:100ba400014178005000210002487800000006004e
:100bb4000421ef000068a900f0ff28004008b600f7
:100bc40000e0a000004288002068a800000028007f
:100bd400100888000421a8000d00070005e1a80002
:040be4000000060007
:020000040000fa
:100be8000410000002000000800000000610000051
:100bf8000200000082000000050000000010000054
:0c0c08000400000080000000000000005c
:020000040000fa
:100c14002174200020c0b30062042000730520006a
:100c240082487800834878008048780000000600f5
:020000040000fa
:0200000401f009
:04000800cfff000026
:020000040000fa
:0200000401f009
:04000c0078ffff007a
:020000040000fa
:0200000401f009
:040010007fffff006f
:020000040000fa
:0200000401f009
:040014007fffff006b
:020000040000fa
:0200000401f009
:04001800ffffff00e7
:020000040000fa
:0200000401f009
:04001c00dfffff0003
:020000040000fa
:0200000401f009
:04002000cfffff000f
:00000001FF
