:020000040000fa
:080000000002040000000000f2
:020000040000fa
:04000800fa020000f8
:020000040000fa
:04000c00fe020000f0
:020000040000fa
:0400100044030000a5
:020000040000fa
:0400140002030000e3
:020000040000fa
:0400180006030000db
:020000040000fa
:04001c000a030000d3
:020000040000fa
:040020004403000095
:020000040000fa
:040024004403000091
:020000040000fa
:04002800440300008d
:020000040000fa
:04002c004403000089
:020000040000fa
:040030004403000085
:020000040000fa
:040034000e030000b7
:020000040000fa
:04003800440300007d
:020000040000fa
:04003c004403000079
:020000040000fa
:040040004403000075
:020000040000fa
:040044004403000071
:020000040000fa
:04004800440300006d
:020000040000fa
:04004c004403000069
:020000040000fa
:040050004403000065
:020000040000fa
:040054004403000061
:020000040000fa
:04005800440300005d
:020000040000fa
:04005c004403000059
:020000040000fa
:040060004403000055
:020000040000fa
:040064004403000051
:020000040000fa
:04006800440300004d
:020000040000fa
:04006c004403000049
:020000040000fa
:040070004403000045
:020000040000fa
:040074004403000041
:020000040000fa
:04007800440300003d
:020000040000fa
:04007c004403000039
:020000040000fa
:040080004403000035
:020000040000fa
:040084004403000031
:020000040000fa
:04008800440300002d
:020000040000fa
:04008c004403000029
:020000040000fa
:040090004403000025
:020000040000fa
:040094004403000021
:020000040000fa
:04009800440300001d
:020000040000fa
:04009c004403000019
:020000040000fa
:0400a0004403000015
:020000040000fa
:0400a4004403000011
:020000040000fa
:0400a800440300000d
:020000040000fa
:0400ac004403000009
:020000040000fa
:0400b0004403000005
:020000040000fa
:0400b4004403000001
:020000040000fa
:0400b80044030000fd
:020000040000fa
:0400bc0044030000f9
:020000040000fa
:0400c00044030000f5
:020000040000fa
:0400c40044030000f1
:020000040000fa
:0400c80044030000ed
:020000040000fa
:0400cc0044030000e9
:020000040000fa
:0400d00044030000e5
:020000040000fa
:0400d40044030000e1
:020000040000fa
:0400d80044030000dd
:020000040000fa
:0400dc0044030000d9
:020000040000fa
:0400e00044030000d5
:020000040000fa
:0400e40044030000d1
:020000040000fa
:0400e80044030000cd
:020000040000fa
:0400ec0044030000c9
:020000040000fa
:0400f00044030000c5
:020000040000fa
:0400f40044030000c1
:020000040000fa
:0400f80044030000bd
:020000040000fa
:0400fc0044030000b9
:020000040000fa
:0401000044030000b4
:020000040000fa
:0401040044030000b0
:020000040000fa
:0401080044030000ac
:020000040000fa
:04010c0044030000a8
:020000040000fa
:0401100044030000a4
:020000040000fa
:0401140044030000a0
:020000040000fa
:04011800440300009c
:020000040000fa
:04011c004403000098
:020000040000fa
:040120004403000094
:020000040000fa
:040124004403000090
:020000040000fa
:04012800440300008c
:020000040000fa
:04012c004403000088
:020000040000fa
:040130004403000084
:020000040000fa
:040134004403000080
:020000040000fa
:04013800440300007c
:020000040000fa
:04013c004403000078
:020000040000fa
:040140004403000074
:020000040000fa
:040144004403000070
:020000040000fa
:04014800440300006c
:020000040000fa
:04014c004403000068
:020000040000fa
:040150004403000064
:020000040000fa
:040154004403000060
:020000040000fa
:04015800440300005c
:020000040000fa
:04015c004403000058
:020000040000fa
:040160004403000054
:020000040000fa
:040164004403000050
:020000040000fa
:04016800440300004c
:020000040000fa
:04016c004403000048
:020000040000fa
:040170004403000044
:020000040000fa
:040174004403000040
:020000040000fa
:04017800440300003c
:020000040000fa
:04017c004403000038
:020000040000fa
:040180004403000034
:020000040000fa
:040184004403000030
:020000040000fa
:04018800440300002c
:020000040000fa
:04018c004403000028
:020000040000fa
:040190004403000024
:020000040000fa
:040194004403000020
:020000040000fa
:04019800440300001c
:020000040000fa
:04019c004403000018
:020000040000fa
:0401a0004403000014
:020000040000fa
:0401a4004403000010
:020000040000fa
:0401a800440300000c
:020000040000fa
:0401ac004403000008
:020000040000fa
:0401b0004403000004
:020000040000fa
:0401b4004403000000
:020000040000fa
:0401b80044030000fc
:020000040000fa
:0401bc0044030000f8
:020000040000fa
:0401c00044030000f4
:020000040000fa
:0401c40044030000f0
:020000040000fa
:0401c80044030000ec
:020000040000fa
:0401cc0044030000e8
:020000040000fa
:0401d00044030000e4
:020000040000fa
:0401d40044030000e0
:020000040000fa
:0401d80044030000dc
:020000040000fa
:0401dc0044030000d8
:020000040000fa
:0401e00044030000d4
:020000040000fa
:0401e40044030000d0
:020000040000fa
:0401e80044030000cc
:020000040000fa
:0401ec0044030000c8
:020000040000fa
:0401f00044030000c4
:020000040000fa
:0401f40044030000c0
:020000040000fa
:0401f80044030000bc
:020000040000fa
:0401fc0044030000b8
:020000040000fa
:0402000044030000b3
:020000040000fa
:0402040044030000af
:020000040000fa
:0402080044030000ab
:020000040000fa
:04020c0044030000a7
:020000040000fa
:0402100044030000a3
:020000040000fa
:04021400440300009f
:020000040000fa
:04021800440300009b
:020000040000fa
:04021c004403000097
:020000040000fa
:040220004403000093
:020000040000fa
:04022400440300008f
:020000040000fa
:04022800440300008b
:020000040000fa
:04022c004403000087
:020000040000fa
:040230004403000083
:020000040000fa
:04023400440300007f
:020000040000fa
:04023800440300007b
:020000040000fa
:04023c004403000077
:020000040000fa
:040240004403000073
:020000040000fa
:04024400440300006f
:020000040000fa
:04024800440300006b
:020000040000fa
:04024c004403000067
:020000040000fa
:040250004403000063
:020000040000fa
:04025400440300005f
:020000040000fa
:04025800440300005b
:020000040000fa
:04025c004403000057
:020000040000fa
:040260004403000053
:020000040000fa
:04026400440300004f
:020000040000fa
:100400006f0021000eff27000e0188000000000091
:10041000000020000000e000020032000001200087
:100420002002880014000700990007000000e00087
:1004300003003a00c05b20000100200002003700ea
:100440000000200001002000810f70000100320038
:100450000f000700000020000000e0000200320052
:100460000000020000000000bc03020000000000c9
:100470000040da000000fe00a00220000000e000c2
:1004800002003200002020009001880000000600d9
:10049000a1028800800478000000eb001f003700f4
:1004a000e284440054a0b4009905ba00e2844400f8
:1004b00054a0b4009906ba00e284440054a0b400e9
:1004c0000006eb00476fde00fd07b200ae018800ba
:1004d000636ce10003003a000ad801000000eb0061
:1004e0000e003700606ce10008003a00004deb00a0
:1004f0000a05e800020039003420ec000af0a000f0
:100500008b05e900f9ff3e00040037006168e10057
:10051000010032000086eb000b00070019c7ba008b
:100520000e04e0001905ba0003003a000a00e000da
:10053000dbff3a0000000600fe07b200ae028800b2
:100540008a047800f5ff37000cd0a300e20f4d00bd
:100550001c00390089027800354dba000a05e80010
:10056000020039003420ec000af0a0008b05e900fd
:100570000f003200254dba000a05e80002003900dc
:100580003420ec000af0a0008b05e90008003200de
:100590000c00e0000600320015cdba000a05e800a4
:1005a000020039003420ec000af0a0008b05e900bd
:1005b0008984e80054a0b4000b00e000e2ff3a0098
:1005c000000006009902ba00055d78008b05e9007d
:1005d000f7ff3200c82ade00055d78008b05e900d0
:1005e000f3ff32000c00e000f1ff320019ddba0029
:1005f000eeff3700c028a900ffff3700c068a90040
:10060000ffff3700c048a900ffff3700c088a900de
:10061000ffff3700c0a8a900ffff3700801f780048
:10062000a0c3b3000250e30002003e000270ec00e1
:100630000d0037000270ef00a0c3b3000150e300cb
:1006400002003e000170ec00070037000170ef006f
:1006500000d0bf00f64f500002003e000070ec00da
:10066000010037000070ef0010c0b30003f0b700c6
:10067000907180000000a200a07188000068a900ad
:100680004f007800004006000040da000000fe0045
:040690000000050061
:020000040000fa
:10069400203a0000200000004348000045530000b9
:1006a400534300004c4f0000434b00000053000034
:1006b400544100005254000020470000414d000006
:1006c400453f000000300000302000003a200000c8
:1006d40030300000203a00002030000030200000bc
:0406e4000000000012
:020000040000fa
:1006e800881f780000d0bf00ff00070000ccb300cf
:1006f8006400070004d0bf000043b000a800070052
:1007080005d0bf000043b000a5000700a8342800aa
:1007180031c0b30008007800b300070001d0bf0063
:10072800f100070004d0bf000043b0009c000700a0
:1007380005d0bf000043b0009900070031c0b300e6
:1007480008007800a800070002d0bf00e6000700f4
:1007580004d0bf000043b0009100070005d0bf00df
:100768000043b0008e0007004f0478000000060028
:10077800889fbe008a1f780000d0bf0001d0bf004c
:100788000270ef00a0032000303a8800f0f32f0039
:100798004427b60000fe2f004427b6004827ef0084
:1007a80040a7a90010002000a2092000810720000e
:1007b80033742000814978008249780080497800a4
:1007c800113a800072052000610420002374200083
:1007d8008149780082497800804978000100270023
:1007e80000002100133a800003816000800f51004f
:1007f800fcff3a0000022000123a800082006000ec
:10080800fdff32000370ef00302ea9002c00070016
:1008180010c0b3001b000700e9342800a1c0b300d2
:10082800090078007000070000ccb300150007002d
:10083800b1c0b300903528006b000700803e20004f
:1008480074000700b50007000accb300583628002a
:100858000350e20002003200a1ff07000370ef001e
:10086800a1c0b300090078005f0007000a407800c3
:1008780004000700c1c0b300080078005a00070050
:10088800f3ff370001f02f0042e4200012896000d6
:100898000000fb00442eb70034aea90015eea900f5
:1008a800348ea800000000000000000000000000d6
:1008b800348ea900500020005600070000000600f2
:1008c800889fbe00f00020005200070009f02f00aa
:1008d80040e420001088640034aea90015eea90099
:1008e800348ea90000e420001088640030aea9000e
:1008f80011eea900308ea90040e4200010886400a1
:100908008803200008007800442eb700348ea80021
:10091800000000000000000000000000348ea90064
:10092800500020003b00070040e4200010886400cd
:1009380008007800442eb700348ea800000000009c
:100948000000000000000000348ea900800c200088
:100958003d00070040e4200010886400080078008b
:10096800442eb700348ea8000000000000000000ec
:1009780000000000348ea900800c2000320007001f
:1009880008407800bfff0700c0c0b300bdff0700e4
:1009980060c0b300bbff07004f04be0000000600a4
:1009a80034aea90015eea80001f02f0042e42000a3
:1009b800128960000000fb00442eb700348ea800a6
:1009c800000000000000000000000000348ea900b4
:1009d80015eea900800c20001b000700800c2000e9
:1009e8001900070000000600889fbe0080047800f8
:1009f800014478000804e00004003200394078001f
:100a0800e7ff07000844e900fcff3a004f04be0076
:100a18000000060001fa20000000000000000000ad
:100a280000000000000000000000000000000000be
:100a3800000000008100e900f7ff3a000000e9002b
:100a4800f4ff3a000000060000000000000000006b
:100a5800000000000000000000000000000000008e
:100a6800000000000000000000000000000000007e
:100a7800000000000000000000000000000000006e
:100a8800000000000000000000000000000000005e
:100a9800000000000000000000000000000000004e
:100aa800000000000000000000000000000000003e
:100ab800000000000000000000000000000000002e
:100ac800000000000000000000000000000000001e
:100ad8000000000000000000000000000000e90025
:100ae800d9ff3a0000000600804078000470ef004b
:100af8000570ef00e9cf500004003400eac0500050
:100b08000470ec00e9cf5000fcff3c000141780084
:100b18005000210002487800000006000421ef0080
:100b28000068a900f0ff28004008b60000e0a00017
:100b3800004288002068a8000000280010088800eb
:100b48000421a8000200070005e1a8000000060033
:100b58002174200020c0b300620420007305200027
:100b680082487800834878008048780000000600b2
:020000040000fa
:100b780004100000020000008000000000100000c7
:0c0b8800040000008000000000000000dd
:020000040000fa
:0200000401f009
:04000800cfff000026
:020000040000fa
:0200000401f009
:04000c0078ffff007a
:020000040000fa
:0200000401f009
:040010007fffff006f
:020000040000fa
:0200000401f009
:040014007fffff006b
:020000040000fa
:0200000401f009
:04001800ffffff00e7
:020000040000fa
:0200000401f009
:04001c00dfffff0003
:020000040000fa
:0200000401f009
:04002000cfffff000f
:00000001FF
