:020000040000fa
:080000000002040000000000f2
:020000040000fa
:04000800fa020000f8
:020000040000fa
:04000c00fe020000f0
:020000040000fa
:040010006e0300007b
:020000040000fa
:0400140002030000e3
:020000040000fa
:0400180006030000db
:020000040000fa
:04001c000a030000d3
:020000040000fa
:040020006e0300006b
:020000040000fa
:040024006e03000067
:020000040000fa
:040028006e03000063
:020000040000fa
:04002c006e0300005f
:020000040000fa
:040030006e0300005b
:020000040000fa
:040034000e030000b7
:020000040000fa
:040038006e03000053
:020000040000fa
:04003c006e0300004f
:020000040000fa
:040040006e0300004b
:020000040000fa
:040044006e03000047
:020000040000fa
:040048006e03000043
:020000040000fa
:04004c006e0300003f
:020000040000fa
:040050006e0300003b
:020000040000fa
:040054006e03000037
:020000040000fa
:040058006e03000033
:020000040000fa
:04005c006e0300002f
:020000040000fa
:040060006e0300002b
:020000040000fa
:040064006e03000027
:020000040000fa
:040068006e03000023
:020000040000fa
:04006c006e0300001f
:020000040000fa
:040070006e0300001b
:020000040000fa
:040074006e03000017
:020000040000fa
:040078006e03000013
:020000040000fa
:04007c006e0300000f
:020000040000fa
:040080006e0300000b
:020000040000fa
:040084006e03000007
:020000040000fa
:040088006e03000003
:020000040000fa
:04008c006e030000ff
:020000040000fa
:040090006e030000fb
:020000040000fa
:040094006e030000f7
:020000040000fa
:040098006e030000f3
:020000040000fa
:04009c006e030000ef
:020000040000fa
:0400a0006e030000eb
:020000040000fa
:0400a4006e030000e7
:020000040000fa
:0400a8006e030000e3
:020000040000fa
:0400ac006e030000df
:020000040000fa
:0400b0006e030000db
:020000040000fa
:0400b4006e030000d7
:020000040000fa
:0400b8006e030000d3
:020000040000fa
:0400bc006e030000cf
:020000040000fa
:0400c0006e030000cb
:020000040000fa
:0400c4006e030000c7
:020000040000fa
:0400c8006e030000c3
:020000040000fa
:0400cc006e030000bf
:020000040000fa
:0400d0006e030000bb
:020000040000fa
:0400d4006e030000b7
:020000040000fa
:0400d8006e030000b3
:020000040000fa
:0400dc006e030000af
:020000040000fa
:0400e0006e030000ab
:020000040000fa
:0400e4006e030000a7
:020000040000fa
:0400e8006e030000a3
:020000040000fa
:0400ec006e0300009f
:020000040000fa
:0400f0006e0300009b
:020000040000fa
:0400f4006e03000097
:020000040000fa
:0400f8006e03000093
:020000040000fa
:0400fc006e0300008f
:020000040000fa
:040100006e0300008a
:020000040000fa
:040104006e03000086
:020000040000fa
:040108006e03000082
:020000040000fa
:04010c006e0300007e
:020000040000fa
:040110006e0300007a
:020000040000fa
:040114006e03000076
:020000040000fa
:040118006e03000072
:020000040000fa
:04011c006e0300006e
:020000040000fa
:040120006e0300006a
:020000040000fa
:040124006e03000066
:020000040000fa
:040128006e03000062
:020000040000fa
:04012c006e0300005e
:020000040000fa
:040130006e0300005a
:020000040000fa
:040134006e03000056
:020000040000fa
:040138006e03000052
:020000040000fa
:04013c006e0300004e
:020000040000fa
:040140006e0300004a
:020000040000fa
:040144006e03000046
:020000040000fa
:040148006e03000042
:020000040000fa
:04014c006e0300003e
:020000040000fa
:040150006e0300003a
:020000040000fa
:040154006e03000036
:020000040000fa
:040158006e03000032
:020000040000fa
:04015c006e0300002e
:020000040000fa
:040160006e0300002a
:020000040000fa
:040164006e03000026
:020000040000fa
:040168006e03000022
:020000040000fa
:04016c006e0300001e
:020000040000fa
:040170006e0300001a
:020000040000fa
:040174006e03000016
:020000040000fa
:040178006e03000012
:020000040000fa
:04017c006e0300000e
:020000040000fa
:040180006e0300000a
:020000040000fa
:040184006e03000006
:020000040000fa
:040188006e03000002
:020000040000fa
:04018c006e030000fe
:020000040000fa
:040190006e030000fa
:020000040000fa
:040194006e030000f6
:020000040000fa
:040198006e030000f2
:020000040000fa
:04019c006e030000ee
:020000040000fa
:0401a0006e030000ea
:020000040000fa
:0401a4006e030000e6
:020000040000fa
:0401a8006e030000e2
:020000040000fa
:0401ac006e030000de
:020000040000fa
:0401b0006e030000da
:020000040000fa
:0401b4006e030000d6
:020000040000fa
:0401b8006e030000d2
:020000040000fa
:0401bc006e030000ce
:020000040000fa
:0401c0006e030000ca
:020000040000fa
:0401c4006e030000c6
:020000040000fa
:0401c8006e030000c2
:020000040000fa
:0401cc006e030000be
:020000040000fa
:0401d0006e030000ba
:020000040000fa
:0401d4006e030000b6
:020000040000fa
:0401d8006e030000b2
:020000040000fa
:0401dc006e030000ae
:020000040000fa
:0401e0006e030000aa
:020000040000fa
:0401e4006e030000a6
:020000040000fa
:0401e8006e030000a2
:020000040000fa
:0401ec006e0300009e
:020000040000fa
:0401f0006e0300009a
:020000040000fa
:0401f4006e03000096
:020000040000fa
:0401f8006e03000092
:020000040000fa
:0401fc006e0300008e
:020000040000fa
:040200006e03000089
:020000040000fa
:040204006e03000085
:020000040000fa
:040208006e03000081
:020000040000fa
:04020c006e0300007d
:020000040000fa
:040210006e03000079
:020000040000fa
:040214006e03000075
:020000040000fa
:040218006e03000071
:020000040000fa
:04021c006e0300006d
:020000040000fa
:040220006e03000069
:020000040000fa
:040224006e03000065
:020000040000fa
:040228006e03000061
:020000040000fa
:04022c006e0300005d
:020000040000fa
:040230006e03000059
:020000040000fa
:040234006e03000055
:020000040000fa
:040238006e03000051
:020000040000fa
:04023c006e0300004d
:020000040000fa
:040240006e03000049
:020000040000fa
:040244006e03000045
:020000040000fa
:040248006e03000041
:020000040000fa
:04024c006e0300003d
:020000040000fa
:040250006e03000039
:020000040000fa
:040254006e03000035
:020000040000fa
:040258006e03000031
:020000040000fa
:04025c006e0300002d
:020000040000fa
:040260006e03000029
:020000040000fa
:040264006e03000025
:020000040000fa
:10040000af0021000eff27000e0188000000000051
:10041000000020000000e000020032000001200087
:100420002002880014000700ae0007000000e00072
:1004300003003a00c06e20000100200002003700d7
:100440000000200001002000810f70000100320038
:100450000f000700000020000000e0000200320052
:10046000000002000000000056040200000000002e
:100470000040da000000fe00200520000000e0003f
:1004800002003200002020009001880000000600d9
:10049000a1028800800478000000eb001f003700f4
:1004a000e284440054a0b4009905ba00e2844400f8
:1004b00054a0b4009906ba00e284440054a0b400e9
:1004c0000006eb00476fde00fd07b200ae018800ba
:1004d000636ce10003003a000ad801000000eb0061
:1004e0000e003700606ce10008003a00004deb00a0
:1004f0000a05e800020039003420ec000af0a000f0
:100500008b05e900f9ff3e00040037006168e10057
:10051000010032000086eb000b00070019c7ba008b
:100520000e04e0001905ba0003003a000a00e000da
:10053000dbff3a0000000600fe07b200ae028800b2
:100540008a047800f5ff37000cd0a300e20f4d00bd
:100550001c00390089027800354dba000a05e80010
:10056000020039003420ec000af0a0008b05e900fd
:100570000f003200254dba000a05e80002003900dc
:100580003420ec000af0a0008b05e90008003200de
:100590000c00e0000600320015cdba000a05e800a4
:1005a000020039003420ec000af0a0008b05e900bd
:1005b0008984e80054a0b4000b00e000e2ff3a0098
:1005c000000006009902ba00055d78008b05e9007d
:1005d000f7ff3200c82ade00055d78008b05e900d0
:1005e000f3ff32000c00e000f1ff320019ddba0029
:1005f000eeff3700c028a900ffff3700c068a90040
:10060000ffff3700c048a900ffff3700c088a900de
:10061000ffff3700c0a8a900ffff3700801f780048
:100620000550e20013003a000150e20002003200df
:100630000170ed0021003700b0c3b30001f0b70036
:100640000850e200020032000870ed001b00370085
:10065000b0c3b30008f0b7000050e200020032005f
:100660000070ed001500370070c1b30000f0b70056
:10067000120037000350e200020032000370ed0068
:100680000e003700b0c3b30003f0b7000950e2001a
:10069000020032000970ed0008003700b0c3b3005b
:1006a00009f0b7000250e200020032000270ed00d3
:1006b0000200370070c1b30002f0b70010c0b300f1
:1006c00004f0b700907180000000a200a0718800c3
:1006d0000068a9004f007800004006000040da00e2
:0806e0000000fe00000005000f
:020000040000fa
:1006e800203a000020000000486500006c6c000003
:1006f8006f00000053740000617200007420000055
:10070800476100006d6500003f20000000430000c5
:100718004845000053530000434c00004f4300007d
:100728004b00000030300000203a0000203000006c
:10073800352000003a200000303000002000000082
:10074800506c0000617900006572000020320000e2
:1007580000520000756e0000206f000075740000e4
:10076800206f000066200000746900006d650000bd
:10077800005000006c6100007965000072200000e4
:04078800310000003c
:020000040000fa
:10078c00881f78000550e20022003a0000d0bf001c
:10079c007401070000ccb300bf00070006d0bf00f7
:1007ac000043b0000301070007d0bf000043b000b6
:1007bc00000107004837280031c0b300080078005a
:1007cc000e01070008d0bf006601070006d0bf006d
:1007dc000043b000f700070007d0bf000043b00093
:1007ec00f400070031c0b3000800780003010700d3
:1007fc0001d0bf005b01070006d0bf000043b00072
:10080c00ec00070007d0bf000043b000e900070070
:10081c002100370002d0bf005201070000ccb3000a
:10082c009d00070006d0bf000043b000e1000700a8
:10083c0007d0bf000043b000de0007004837280097
:10084c0031c0b30008007800ec00070009d0bf00ed
:10085c004401070006d0bf000043b000d5000700dc
:10086c0007d0bf000043b000d200070031c0b30076
:10087c0008007800e100070003d0bf003901070031
:10088c0006d0bf000043b000ca00070007d0bf006d
:10089c000043b000c70007004f04780000000600ba
:1008ac00889fbe0000d0bf0008d0bf000170ef00d1
:1008bc0002d0bf0009d0bf000370ef000570ef003d
:1008cc00a0032000303a8800f0f32f004427b60034
:1008dc0000fe2f004427b6004827ef0040a7a900d0
:1008ec0010002000a2092000810720003374200092
:1008fc00814978008249780080497800113a80005b
:10090c0072052000610420002374200081497800c6
:10091c0082497800804978000100270000002100fe
:10092c00133a800003816000800f5100fcff3a00f5
:10093c0000022000123a800082006000fdff3200ad
:10094c000470ef00302ea9006200070010c0b30045
:10095c005100070010002000f900070020002000c3
:10096c00f700070051c0b30080372800a300070030
:10097c0000ccb30048000700c1c0b300e03728002a
:10098c009e00070010002000dc0007000004e000bf
:10099c003e003200a1c0b300b03828009700070019
:1009ac0000ccb3003c00070001c1b3006039280043
:1009bc0092000700803e20009b000700f600070015
:1009cc00483a2800d93a280020002000cb00070024
:1009dc000004e000120032000040eb002e00070083
:1009ec0081c0b300080078008400070010002000cc
:1009fc00090107000150e200090032000850e20032
:100a0c00070032000050e20005003a000040eb0005
:100a1c0021000700f1c0b30009007800770007003f
:100a2c0010002000b50007000004e00012003200a6
:100a3c000040eb001800070081c0b300d03b280039
:100a4c006e0007000000eb00f30007000350e2000b
:100a5c00090032000950e200070032000250e200a7
:100a6c0005003a000040eb000b000700f1c0b3009a
:100a7c0009007800610007000450e200d2ff320048
:100a8c003fff07000470ef00cfff37000000eb00c2
:100a9c004f04be000000060001f02f0042e42000cd
:100aac00128960000000fb00442eb70034aea90090
:100abc0015eea900348ea800000000000000000014
:100acc0000000000348ea9005000200056000700e2
:100adc0000000600889fbe00f000200052000700b6
:100aec0009f02f0040e420001088640034aea90007
:100afc0015eea900348ea90000e4200010886400d3
:100b0c0030aea90011eea900308ea90040e42000ff
:100b1c00108864008803200008007800442eb70079
:100b2c00348ea8000000000000000000000000004f
:100b3c00348ea900500020003b00070040e4200048
:100b4c001088640008007800442eb700348ea8008a
:100b5c00000000000000000000000000348ea9001e
:100b6c00800c20003d00070040e420001088640049
:100b7c0008007800442eb700348ea8000000000056
:100b8c000000000000000000348ea900800c200042
:100b9c003200070008407800bfff0700c0c0b30058
:100bac00bdff070060c0b300bbff07004f04be00d1
:100bbc000000060034aea90015eea80001f02f00cd
:100bcc0042e42000128960000000fb00442eb700b4
:100bdc00348ea8000000000000000000000000009f
:100bec00348ea90015eea900800c20001b00070014
:100bfc00800c20001900070000000600889fbe0032
:100c0c0080047800014478000804e00004003200fd
:100c1c0039407800e7ff07000844e900fcff3a0080
:100c2c004f04be000000060001fa20000000000086
:100c3c0000000000000000000000000000000000a8
:100c4c0000000000000000008100e900f7ff3a00fe
:100c5c000000e900f4ff3a0000000600000000006c
:100c6c000000000000000000000000000000000078
:100c7c000000000000000000000000000000000068
:100c8c000000000000000000000000000000000058
:100c9c000000000000000000000000000000000048
:100cac000000000000000000000000000000000038
:100cbc000000000000000000000000000000000028
:100ccc000000000000000000000000000000000018
:100cdc000000000000000000000000000000000008
:100cec0000000000000000000000000000000000f8
:100cfc000000e900d9ff3a0000000600e10f5000a7
:100d0c0003003200e20f50000b003a0005003700e0
:100d1c0000002100620eb6000000e9004f00de006a
:100d2c000600370000002200620eb6000000e90049
:100d3c004f00de00010037000040eb000000060011
:100d4c00e10f500003003200e20f500004003a00a3
:100d5c0002003700618ea8000100370061aea800c8
:100d6c0000000600804078000670ef000770ef006e
:100d7c00e9cf500004003400eac050000670ec00cb
:100d8c00e9cf5000fcff3c000141780070002100cd
:100d9c0002487800000006000421ef000068a9005a
:100dac00f0ff28004008b60000e0a00000428800d8
:100dbc002068a80000002800100888000421a80062
:0c0dcc000d00070005e1a8000000060073
:020000040000fa
:100dd800061000000200000080000000081000005b
:100de800020000008200000005050000001000005d
:0c0df80006000000800000000000000069
:020000040000fa
:100e04002174200020c0b300620420007305200078
:100e14008248780083487800804878000000060003
:080e240005f0b7000000060014
:020000040000fa
:0200000401f009
:04000800cfff000026
:020000040000fa
:0200000401f009
:04000c0078ffff007a
:020000040000fa
:0200000401f009
:040010007fffff006f
:020000040000fa
:0200000401f009
:040014007fffff006b
:020000040000fa
:0200000401f009
:04001800ffffff00e7
:020000040000fa
:0200000401f009
:04001c00dfffff0003
:020000040000fa
:0200000401f009
:04002000cfffff000f
:00000001FF
